:100000000C945E000C9486000C9486000C94860080
:100010000C9486000C9486000C9486000C940C03BF
:100020000C9486000C9486000C9486000C94860038
:100030000C9486000C9486000C9486000C94860028
:100040000C94E6030C9486000C94B4030C948E0379
:100050000C9486000C9486000C9486000C94860008
:100060000C9486000C948600000000080002010039
:100070000003040700000000000000000200000070
:1000800000250028002B0000000000240027002A83
:100090000004040404040404040202020202020331
:1000A000030303030301020408102040800102043B
:1000B00008102001020408102000300411241FBE83
:1000C000CFEFD8E0DEBFCDBF11E0A0E0B1E0E4E1CA
:1000D000FCE002C005900D92A233B107D9F721E0F0
:1000E000A2E3B1E001C01D92AD3EB207E1F710E01E
:1000F000CEE5D0E004C02197FE010E940206CD3576
:10010000D107C9F70E9478040C9408060C940000EB
:1001100090E0FC01EB55FF4F24918F569F4FFC015F
:100120008491882399F090E0880F991FFC01E9578A
:10013000FF4FA591B491FC01E358FF4F8591949135
:100140008FB7F894EC91E22BEC938FBF0895AF92A8
:10015000BF92CF92DF92EF92FF920F931F93CF93B4
:10016000DF936C017B018B01040F151FEB015E0116
:10017000AE18BF08C017D10759F06991D601ED91AB
:10018000FC910190F081E02DC6010995892B79F74A
:10019000C501DF91CF911F910F91FF90EF90DF90FC
:1001A000CF90BF90AF900895FC01538D448D252FC3
:1001B00030E0842F90E0821B930B541710F0CF9601
:1001C000089501970895FC01918D828D981761F033
:1001D000A28DAE0FBF2FB11D5D968C91928D9F5F4A
:1001E0009F73928F90E008958FEF9FEF0895FC0129
:1001F000918D828D981731F0828DE80FF11D858DDC
:1002000090E008958FEF9FEF0895FC01918D228D6E
:10021000892F90E0805C9F4F821B91098F739927F3
:1002200008958CE491E00E94050121E0892B09F4F6
:1002300020E0822F089580E090E0892B29F00E9431
:10024000110181110C9400000895FC01A48DA80FE8
:10025000B92FB11DA35ABF4F2C91848D90E0019608
:100260008F739927848FA689B7892C93A089B18928
:100270008C91837080648C93938D848D981306C0C9
:100280000288F389E02D80818F7D80830895EF922D
:10029000FF920F931F93CF93DF93EC0181E0888F40
:1002A0009B8D8C8D98131AC0E889F989808185FF10
:1002B00015C09FB7F894EE89FF896083E889F989B2
:1002C00080818370806480839FBF81E090E0DF91B4
:1002D000CF911F910F91FF90EF900895F62E0B8D07
:1002E00010E00F5F1F4F0F731127E02E8C8D8E11C2
:1002F0000CC00FB607FCFACFE889F989808185FF29
:10030000F5CFCE010E942501F1CFEB8DEC0FFD2F33
:10031000F11DE35AFF4FF0829FB7F8940B8FEA89E3
:10032000FB8980818062CFCFCF93DF93EC01888DF2
:100330008823B9F0AA89BB89E889F9898C9185FD60
:1003400003C0808186FD0DC00FB607FCF7CF8C91EE
:1003500085FFF2CF808185FFEDCFCE010E94250180
:10036000E9CFDF91CF91089590E0FC01E859FF4F6C
:100370002491FC01EB55FF4F3491FC01EF56FF4FE8
:10038000E491EE23C9F0222339F0233001F1A8F4DF
:10039000213019F1223029F1F0E0EE0FFF1FE35870
:1003A000FF4FA591B4918FB7F894EC91611126C0DD
:1003B00030953E233C938FBF08952730A9F0283015
:1003C000C9F0243049F7809180008F7D03C080916F
:1003D00080008F7780938000DFCF84B58F7784BDD6
:1003E000DBCF84B58F7DFBCF8091B0008F7780937A
:1003F000B000D2CF8091B0008F7DF9CF3E2BDACF05
:100400001F93CF93DF93182FEB010E948800209752
:1004100039F460E0812FDF91CF911F910C94B401EA
:10042000CF3FD10511F461E0F5CFE12FF0E0E859BD
:10043000FF4FE491E33031F140F4E130B1F0E230CC
:10044000E1F0C038D1057CF7E4CFE73029F1E8309E
:1004500059F1E430B1F78091800080628093800090
:10046000D0938B00C0938A0004C084B5806884BD9B
:10047000C7BDDF91CF911F91089584B5806284BD7F
:10048000C8BDF7CF80918000806880938000D093B2
:100490008900C0938800EDCF8091B0008068809380
:1004A000B000C093B300E5CF8091B000806280932C
:1004B000B000C093B400DDCFCF93DF93EC01809107
:1004C000E9019091EA01009729F00197C9F0DF91C5
:1004D000CF9108958091EB01D7FD0AC0BE010E9423
:1004E000000260E08091EC01DF91CF910C94B401A7
:1004F000662777276C1B7D0B0E94000261E0F2CF1C
:100500008091EB01D7FD0BC0BE010E94000270E09C
:1005100060E08091EC01DF91CF910C94000270E0DB
:1005200060E00E940002662777276C1B7D0BF1CFED
:100530003FB7F8948091370190913801A09139012B
:10054000B0913A0126B5A89B05C02F3F19F001963E
:10055000A11DB11D3FBFBA2FA92F982F8827BC011D
:10056000CD01620F711D811D911D42E0660F771F45
:10057000881F991F4A95D1F708958F929F92AF9245
:10058000BF92CF92DF92EF92FF924B015C010E94EB
:1005900098026B017C010E9498026C197D098E09FA
:1005A0009F09683E734081059105A8F321E0821AF6
:1005B0009108A108B10888EEC80E83E0D81EE11C9E
:1005C000F11C81149104A104B10429F7FF90EF906C
:1005D000DF90CF90BF90AF909F908F900895CF9372
:1005E000DF93FC0101900020E9F73197AF01481B30
:1005F000590BBC018CE491E00E94A700EC0142E0A1
:1006000050E063E171E08CE491E00E94A7008C0F60
:100610009D1FDF91CF9108951F920F920FB60F92F9
:1006200011242F933F934F935F936F937F938F93F7
:100630009F93AF93BF93EF93FF938091400190916D
:100640004101A0914201B0914301892B8A2B8B2B50
:10065000D1F190913B01E0913C01F0913D0180810D
:10066000892780838091400190914101A0914201AE
:10067000B0914301181619061A061B069CF48091C6
:10068000400190914101A0914201B0914301019735
:10069000A109B1098093400190934101A0934201C7
:1006A000B0934301FF91EF91BF91AF919F918F91D3
:1006B0007F916F915F914F913F912F910F900FBE5E
:1006C0000F901F90189580910001ECE7F0E0E49105
:1006D0009FEF90930001E13051F030F0E23069F08B
:1006E00060E00E94B401DECF10926E00F9CF9091CD
:1006F0006F009D7F90936F00F3CF909170009D7F6E
:100700009093700091E09093B0009091B100987F29
:1007100094609093B1001092B300E2CF1F920F92B9
:100720000FB60F9211242F933F934F935F936F93C4
:100730007F938F939F93AF93BF93EF93FF938CE43B
:1007400091E00E942501FF91EF91BF91AF919F91A0
:100750008F917F916F915F914F913F912F910F906A
:100760000FBE0F901F9018951F920F920FB60F9209
:1007700011242F938F939F93EF93FF93E0915C014C
:10078000F0915D018081E0916201F091630182FD51
:100790001BC09081809165018F5F8F7320916601EE
:1007A000821741F0E0916501F0E0E45BFE4F958F28
:1007B00080936501FF91EF919F918F912F910F9001
:1007C0000FBE0F901F9018958081F4CF1F920F924B
:1007D0000FB60F9211242F933F938F939F93AF9354
:1007E000BF938091330190913401A0913501B09174
:1007F00036013091320123E0230F2D3758F5019651
:10080000A11DB11D209332018093330190933401D7
:10081000A0933501B0933601809137019091380152
:10082000A0913901B0913A010196A11DB11D8093AB
:10083000370190933801A0933901B0933A01BF91E9
:10084000AF919F918F913F912F910F900FBE0F907D
:100850001F90189526E8230F0296A11DB11DD2CF37
:10086000CF93DF93ECE4F1E01382128288EE93E001
:10087000A0E0B0E084839583A683B78385E091E010
:100880009183808385EC90E09587848784EC90E069
:100890009787868780EC90E0918B808B81EC90E04D
:1008A000938B828B82EC90E0958B848B86EC90E02E
:1008B000978B868B118E128E138E148EC9EED1E01B
:1008C00081E090E09983888385E08A8383E08B834D
:1008D00085E00E9488008B810E94880060E08A8108
:1008E0000E94B40160E08B81DF91CF910C94B40140
:1008F000789484B5826084BD84B5816084BD85B5FB
:10090000826085BD85B5816085BD80916E00816006
:1009100080936E00109281008091810082608093AC
:1009200081008091810081608093810080918000AE
:100930008160809380008091B10084608093B100D9
:100940008091B00081608093B00080917A008460D3
:1009500080937A0080917A00826080937A008091FF
:100960007A00816080937A0080917A008068809319
:100970007A001092C10080910001883009F46BC0A8
:100980008F3F09F47EC0E0915C01F0915D0182E04F
:100990008083E0915801F09159011082E0915A0151
:1009A000F0915B018FEC808310926401E091600113
:1009B000F091610186E08083E0915E01F0915F013A
:1009C000808180618083E0915E01F0915F01808190
:1009D00088608083E0915E01F0915F018081806892
:1009E0008083E0915E01F0915F0180818F7D808343
:1009F00086E191E00E94EF028FEF90E00E945C029E
:100A000080E291E00E94EF0260ED77E080E090E00C
:100A10000E94BD0290E080E00E945C0281E09FEFB6
:100A20000E945C0289E291E00E94EF0268EB7BE0A9
:100A300080E090E00E94BD0290E080E00E945C02B5
:100A4000C0E0D0E02097F1F30E9411018823D1F398
:100A50000E940000F7CFECE7F0E0C491C7FD93CF10
:100A600088E00E948800CC2309F479C0C23009F0E4
:100A70008EC08091B100887F84608093B1008BE943
:100A8000ADC088E080930001ECE7F0E0C491CF3F77
:100A900009F479CFC13019F148F0C23009F43DC0F2
:100AA000C7FD71CF88E00E948800E0CF14BC15BC60
:100AB00084B5826084BD85B5816085BDE9E9F0E0DB
:100AC000E491F0E0EE0FFF1FE358FF4F8591949102
:100AD000EDEAF0E0E491E0933F01C0E0C1CF109275
:100AE0008000109281008091810088608093810055
:100AF00080918100816080938100E9E9F0E0E491D8
:100B0000F0E0EE0FFF1FE358FF4F85919491EDEA5F
:100B1000F0E0E491E0933E01A3CF1092B000109278
:100B2000B1008091B00082608093B0008091B100EC
:100B300081608093B100E9E9F0E0E491F0E0EE0F2C
:100B4000FF1FE358FF4F8591949190933D0180934F
:100B50003C01EDEAF0E0E491E0933B0181CF85B503
:100B6000887F836085BD8BE987BD80E892E0A0E047
:100B7000B0E08093480190934901A0934A01B0935B
:100B80004B0180916E00826080936E00FCCEC1307C
:100B9000F1F480918100887F8160809381008FE0F3
:100BA00097E2909389008093880080E892E0A0E02B
:100BB000B0E08093440190934501A0934601B09327
:100BC000470180916F00826080936F00DCCEC2305D
:100BD00021F0C111D8CE8FE0C7CF8FE08093B30052
:100BE00080E892E0A0E0B0E0809340019093410162
:100BF000A0934201B0934301809170008260809382
:100C00007000C1CEEE0FFF1F0590F491E02D099406
:040C1000F894FFCF86
:100C1400FF000000004701A700D40094010501E390
:100C240000F7000D0A0048656C6C6F204D445400B9
:100C34005475726E20434357005475726E204357A7
:020C44000000AE
:107E0000112484B714BE81FFF0D085E080938100F7
:107E100082E08093C00088E18093C10086E0809377
:107E2000C20080E18093C4008EE0C9D0259A86E02C
:107E300020E33CEF91E0309385002093840096BBD3
:107E4000B09BFECF1D9AA8958150A9F7CC24DD24C4
:107E500088248394B5E0AB2EA1E19A2EF3E0BF2EE7
:107E6000A2D0813461F49FD0082FAFD0023811F036
:107E7000013811F484E001C083E08DD089C08234E0
:107E800011F484E103C0853419F485E0A6D080C0E4
:107E9000853579F488D0E82EFF2485D0082F10E0AE
:107EA000102F00270E291F29000F111F8ED06801E7
:107EB0006FC0863521F484E090D080E0DECF843638
:107EC00009F040C070D06FD0082F6DD080E0C81688
:107ED00080E7D80618F4F601B7BEE895C0E0D1E017
:107EE00062D089930C17E1F7F0E0CF16F0E7DF06D8
:107EF00018F0F601B7BEE89568D007B600FCFDCFD4
:107F0000A601A0E0B1E02C9130E011968C91119780
:107F100090E0982F8827822B932B1296FA010C0160
:107F200087BEE89511244E5F5F4FF1E0A038BF0790
:107F300051F7F601A7BEE89507B600FCFDCF97BE46
:107F4000E89526C08437B1F42ED02DD0F82E2BD052
:107F50003CD0F601EF2C8F010F5F1F4F84911BD097
:107F6000EA94F801C1F70894C11CD11CFA94CF0C13
:107F7000D11C0EC0853739F428D08EE10CD085E9AC
:107F80000AD08FE07ACF813511F488E018D01DD067
:107F900080E101D065CF982F8091C00085FFFCCF94
:107FA0009093C60008958091C00087FFFCCF809118
:107FB000C00084FD01C0A8958091C6000895E0E648
:107FC000F0E098E1908380830895EDDF803219F02E
:107FD00088E0F5DFFFCF84E1DECF1F93182FE3DFCA
:107FE0001150E9F7F2DF1F91089580E0E8DFEE27F6
:047FF000FF270994CA
:027FFE00040479
:0400000300007E007B
:00000001FF
