:100000000C945E000C9486000C9486000C94860080
:100010000C9486000C9486000C9486000C94D603F5
:100020000C9486000C9486000C9486000C94860038
:100030000C9486000C9486000C9486000C94860028
:100040000C94B0040C9486000C947E040C94580418
:100050000C9486000C9486000C9486000C94860008
:100060000C94FA040C9486000000000800020100C1
:100070000003040700000000000000000200000070
:1000800000250028002B0000000000240027002A83
:100090000004040404040404040202020202020331
:1000A000030303030301020408102040800102043B
:1000B00008102001020408102000190611241FBE98
:1000C000CFEFD8E0DEBFCDBF11E0A0E0B1E0E2E4C9
:1000D000F1E102C005900D92AE33B107D9F722E0ED
:1000E000AEE3B1E001C01D92A63CB207E1F710E01B
:1000F000CEE5D0E004C02197FE010E949908CD35DD
:10010000D107C9F70E947D060C949F080C9400004B
:1001100090E0FC01EB55FF4F24918F569F4FFC015F
:100120008491882399F090E0880F991FFC01E9578A
:10013000FF4FA591B491FC01E358FF4F8591949135
:100140008FB7F894EC91E22BEC938FBF089508954C
:100150000895AF92BF92CF92DF92EF92FF920F93EA
:100160001F93CF93DF936C017B018B01040F151F4D
:10017000EB015E01AE18BF08C017D10759F06991B5
:10018000D601ED91FC910190F081E02DC601099519
:10019000892B79F7C501DF91CF911F910F91FF90C6
:1001A000EF90DF90CF90BF90AF900895FC01538DFA
:1001B000448D252F30E0842F90E0821B930B541741
:1001C00010F0CF96089501970895FC01918D828DCE
:1001D000981761F0A28DAE0FBF2FB11D5D968C9167
:1001E000928D9F5F9F73928F90E008958FEF9FEFA6
:1001F0000895FC01918D828D981731F0828DE80F62
:10020000F11D858D90E008958FEF9FEF0895FC011B
:10021000918D228D892F90E0805C9F4F821B9109E8
:100220008F73992708958CE092E00E94070121E0E6
:10023000892B09F420E0822F089580E090E0892B3B
:1002400029F00E94130181110C9400000895FC0113
:10025000A48DA80FB92FB11DA35ABF4F2C91848D27
:1002600090E001968F739927848FA689B7892C9384
:10027000A089B1898C91837080648C93938D848DD7
:10028000981306C00288F389E02D80818F7D8083DA
:100290000895EF92FF920F931F93CF93DF93EC019A
:1002A00081E0888F9B8D8C8D98131AC0E889F9891D
:1002B000808185FF15C09FB7F894EE89FF89608320
:1002C000E889F98980818370806480839FBF81E0A1
:1002D00090E0DF91CF911F910F91FF90EF900895E3
:1002E000F62E0B8D10E00F5F1F4F0F731127E02EBE
:1002F0008C8D8E110CC00FB607FCFACFE889F989F6
:10030000808185FFF5CFCE010E942701F1CFEB8DD3
:10031000EC0FFD2FF11DE35AFF4FF0829FB7F894C9
:100320000B8FEA89FB8980818062CFCFCF93DF93E7
:10033000EC01888D8823B9F0AA89BB89E889F989FD
:100340008C9185FD03C0808186FD0DC00FB607FC32
:10035000F7CF8C9185FFF2CF808185FFEDCFCE0165
:100360000E942701E9CFDF91CF91089590E0FC0131
:10037000E859FF4F2491FC01EB55FF4F3491FC01EC
:10038000EF56FF4FE491EE23C9F0222339F02330DA
:1003900001F1A8F4213019F1223029F1F0E0EE0F3B
:1003A000FF1FE358FF4FA591B4918FB7F894EC91DC
:1003B000611126C030953E233C938FBF08952730AE
:1003C000A9F02830C9F0243049F7809180008F7D52
:1003D00003C0809180008F7780938000DFCF84B549
:1003E0008F7784BDDBCF84B58F7DFBCF8091B0004C
:1003F0008F778093B000D2CF8091B0008F7DF9CFFE
:100400003E2BDACF3FB7F8948091EC019091ED014B
:10041000A091EE01B091EF0126B5A89B05C02F3F3A
:1004200019F00196A11DB11D3FBFBA2FA92F982F1A
:100430008827BC01CD01620F711D811D911D42E015
:10044000660F771F881F991F4A95D1F708958F92DD
:100450009F92AF92BF92CF92DF92EF92FF924B01A9
:100460005C010E9402026B017C010E9402026C1975
:100470007D098E099F09683E734081059105A8F3A7
:1004800021E0821A9108A108B10888EEC80E83E025
:10049000D81EE11CF11C81149104A104B10429F7B8
:1004A000FF90EF90DF90CF90BF90AF909F908F9094
:1004B000089585ED8093BC008091BC0084FDFCCF45
:1004C0001092070208952091A001260F3327331FB1
:1004D00021323105ECF420910702FC0190E080E02C
:1004E000243069F082E00895A091A0012191AC012F
:1004F00040585E4FA40FB52FB11D2C93019686175F
:1005000098F38091A001680F6093A00180E00895A6
:1005100081E008950895E0910B0280910A02E817A6
:1005200030F4F0E0E05AFE4F808190E008958FEFC4
:100530009FEF089590910B0280910A022FEF3FEFF9
:10054000981748F4E92FF0E0E05AFE4F208130E0A0
:100550009F5F90930B02C901089580910A029091C8
:100560000B02891B990B0895CF92DF92EF92FF92B5
:100570000F931F93CF93DF937C01CB018A012091CE
:100580005F01222389F0EB016B01C40ED51ECC154F
:10059000DD0569F06991D701ED91FC910190F08141
:1005A000E02DC7010995F3CF642F0E946302C801B3
:1005B000DF91CF911F910F91FF90EF90DF90CF903F
:1005C0000895CF93DF931F92CDB7DEB76983209153
:1005D0005F012223F9F020910802203258F021E037
:1005E00030E0FC013383228390E080E00F90DF91C4
:1005F000CF91089580910902E82FF0E0E15CFE4F71
:10060000998190838F5F809309028093080281E033
:1006100090E0ECCF61E0CE0101960E946302F7CF3B
:10062000CF93FC01C48121E020935F01C0933E0180
:1006300010920902109208028485682B89EA92E0E0
:100640000E94E10290910802913208F03FC080912F
:1006500007028111FCCF82E08093070281E0809342
:1006600006028FEF8093C3011092E5019093E4019D
:10067000AFE3B1E0E4ECF1E080E098132FC010921A
:10068000E6018091E601CC0FC82BC093E601809172
:100690000502813039F5109205028091E6018093C0
:1006A000BB008091BC0083FDF8CF85EC8093BC003B
:1006B000809107028230E1F38091C3018F3F31F0D6
:1006C0008091C301803211F08091C3011092090220
:1006D0001092080210925F01CF9108952D912193FD
:1006E0008F5FCBCF85EEE2CF089590E080E0089554
:1006F000FB0101900020E9F73197AF01461B570B32
:10070000DC01ED91FC910280F381E02D09940F93BF
:100710001F93CF938C01C62F0E9410036C2F64602F
:10072000C8010E9410036C2F6B7FC8010E94100348
:1007300083EC90E00197F1F7CF911F910F9108950D
:100740000F931F93CF93DF938C01D62FC42F607F1D
:10075000642B0E94870380E1D89FB00111246C2B89
:10076000C801DF91CF911F910F910C948703682FDF
:10077000606840E089EB92E00C94A00340E061E007
:1007800089EB92E00E94A0038BE39FE10197F1F7D0
:100790008091C202882319F080E00C94B703089579
:1007A00041E00E94A00381E090E008951F920F9223
:1007B0000FB60F9211242F933F934F935F936F9334
:1007C0007F938F939F93AF93BF93EF93FF9380910A
:1007D000F5019091F601A091F701B091F801892BF4
:1007E0008A2B8B2BD1F19091F001E091F101F091E6
:1007F000F2018081892780838091F5019091F60133
:10080000A091F701B091F801181619061A061B06F7
:100810009CF48091F5019091F601A091F701B091BF
:10082000F8010197A109B1098093F5019093F601B0
:10083000A093F701B093F801FF91EF91BF91AF91B1
:100840009F918F917F916F915F914F913F912F91E8
:100850000F900FBE0F901F90189580910001ECE74C
:10086000F0E0E4919FEF90930001E13051F030F01F
:10087000E23069F060E00E94B601DECF10926E00B7
:10088000F9CF90916F009D7F90936F00F3CF90917F
:1008900070009D7F9093700091E09093B0009091D4
:1008A000B100987F94609093B1001092B300E2CFB2
:1008B0001F920F920FB60F9211242F933F934F93D5
:1008C0005F936F937F938F939F93AF93BF93EF93B8
:1008D000FF938CE092E00E942701FF91EF91BF917E
:1008E000AF919F918F917F916F915F914F913F91C8
:1008F0002F910F900FBE0F901F9018951F920F927F
:100900000FB60F9211242F938F939F93EF93FF9322
:10091000E0911C02F0911D028081E0912202F09191
:10092000230282FD1BC09081809125028F5F8F730F
:1009300020912602821741F0E0912502F0E0E45F69
:10094000FD4F958F80932502FF91EF919F918F919D
:100950002F910F900FBE0F901F9018958081F4CFAC
:100960001F920F920FB60F9211242F933F938F93E4
:100970009F93AF93BF938091E8019091E901A0917B
:10098000EA01B091EB013091E70123E0230F2D370D
:1009900058F50196A11DB11D2093E7018093E80150
:1009A0009093E901A093EA01B093EB018091EC01EF
:1009B0009091ED01A091EE01B091EF010196A11D82
:1009C000B11D8093EC019093ED01A093EE01B093E3
:1009D000EF01BF91AF919F918F913F912F910F9018
:1009E0000FBE0F901F90189526E8230F0296A11DA9
:1009F000B11DD2CF1F920F920FB60F9211242F93D9
:100A00003F934F935F936F937F938F939F93AF9396
:100A1000BF93EF93FF938091B900887F803609F4EC
:100A20004AC0F0F5883209F4A7C018F5803109F4FE
:100A30009BC0B8F4882309F4F9C0883009F494C045
:100A4000FF91EF91BF91AF919F918F917F916F91A6
:100A50005F914F913F912F910F900FBE0F901F907C
:100A60001895883109F488C0803251F78093C3010A
:100A700014C0803409F49DC040F48033B9F3883346
:100A8000F9F68093C30185ECB0C0803509F485C0C8
:100A9000883509F496C0883499F60E945902D0CF5F
:100AA000883909F48CC038F5883729F050F4883635
:100AB00011F0803729F683E0809307021092C2017B
:100AC00057C0883809F47BC0803919F0803809F0A4
:100AD000B7CF8091C201803208F071C0E091C201AD
:100AE00081E08E0F8093C2018091BB00F0E0EE5553
:100AF000FE4F80833DC0803B39F0E0F4803A09F43A
:100B000079C0883A09F09CCF84E080930702109264
:100B1000A1011092A001E0910302F0910402099555
:100B20008091A00181110FC081E08093A0011092FB
:100B3000800109C0803C09F4A6CF883C09F4A3CF0A
:100B4000883B09F07DCFE091A10181E08E0F809379
:100B5000A101F0E0E058FE4F80818093BB009091AE
:100B6000A1018091A00129C08091E6018093BB0082
:100B700085EC8093BC0064CF9091E5018091E40105
:100B8000981758F5E091E50181E08E0F8093E5011B
:100B9000F0E0EC53FE4F8081E9CFE091E50181E088
:100BA0008E0F8093E5018091BB00F0E0EC53FE4F87
:100BB00080839091E5018091E4019817C8F285E85F
:100BC000D8CFE091E50181E08E0F8093E50180911F
:100BD000BB00F0E0EC53FE4F808380910602811150
:100BE0005CCF81E08093050284EA8093BC00109280
:100BF000070226CF85EC8093BC00109207028091FB
:100C0000C201803230F4E091C201F0E0EE55FE4FB7
:100C100010826091C20170E0E0910102F091020245
:100C200082EA91E009951092C2010ACF1092C301A5
:100C300034CFCF93DF93ECE0F2E01382128288EEA0
:100C400093E0A0E0B0E084839583A683B78325E09A
:100C500031E03183208325EC30E03587248724EC94
:100C600030E03787268720EC30E0318B208B21EC79
:100C700030E0338B228B22EC30E0358B248B26EC5A
:100C800030E0378B268B118E128E138E148EE9EA8C
:100C9000F2E01382128284839583A683B78387E16F
:100CA00091E091838083E9EBF2E01382128289E282
:100CB00091E091838083118687E2848380E182873B
:100CC00082E083871486C5EBD2E081E090E09983CF
:100CD000888385E08A8383E08B8385E00E94880097
:100CE0008B810E94880060E08A810E94B60160E0EA
:100CF0008B81DF91CF910C94B601789484B582609A
:100D000084BD84B5816084BD85B5826085BD85B5AF
:100D1000816085BD80916E00816080936E0010922D
:100D200081008091810082608093810080918100A8
:100D30008160809381008091800081608093800039
:100D40008091B10084608093B1008091B000816097
:100D50008093B00080917A00846080937A008091C3
:100D60007A00826080937A0080917A00816080931B
:100D70007A0080917A00806880937A001092C10096
:100D800080910001883009F4FDC08F3F09F410C143
:100D9000E0911C02F0911D0282E08083E091180234
:100DA000F09119021082E0911A02F0911B028FEC6F
:100DB000808310922402E0912002F091210286E0CB
:100DC0008083E0911E02F0911F0280818061808308
:100DD000E0911E02F0911F02808188608083E09183
:100DE0001E02F0911F02808180688083E0911E02C4
:100DF000F0911F0280818F7D808361E371E08CE040
:100E000092E00E9478036BE371E08CE092E00E9434
:100E1000780310920B0210920A02109209021092AB
:100E200008021092070281E08093060210920502E8
:100E300061E082E10E94B60161E083E10E94B601B7
:100E40008091B9008E7F8093B9008091B9008D7F29
:100E50008093B90088E48093B80085E48093BC0057
:100E600087EA90E0909304028093030288EA90E07E
:100E700090930202809301021092BE028091C402FC
:100E8000823018F098E09093BE028093C10262E332
:100E900070E080E090E00E9427026091C50289EB3B
:100EA00092E00E94100368EE73E080E090E00E9400
:100EB000270260E389EB92E00E948703CBE4D6E44B
:100EC000CE010197F1F760E389EB92E00E9487037E
:100ED0002197F1F760E389EB92E00E94870383E5B5
:100EE00092E00197F1F760E289EB92E00E948703BC
:100EF0006091BE02606240E089EB92E00E94A00334
:100F000084E08093BF0240E06CE089EB92E00E94B5
:100F1000A0030E94BE0382E08093C00240E066E02E
:100F200089EB92E00E94A00340E062E089EB92E04E
:100F30000E94A0038BE39FE10197F1F788E0809383
:100F4000C50260E089EB92E00E94100383E00E94FA
:100F5000B70361E371E089EB92E00E94780368EEE9
:100F600073E080E090E00E9427020E94BE03C0E090
:100F7000D0E02097F1F30E9413018823D1F30E945F
:100F80000000F7CFECE7F0E0C491C7FD01CF88E0A7
:100F90000E948800CC2309F479C0C23009F08EC0C9
:100FA0008091B100887F84608093B1008BE9ADC0EF
:100FB00088E080930001ECE7F0E0C491CF3F09F4B2
:100FC000E7CEC13019F148F0C23009F43DC0C7FD89
:100FD000DFCE88E00E948800E0CF14BC15BC84B549
:100FE000826084BD85B5816085BDE9E9F0E0E4916A
:100FF000F0E0EE0FFF1FE358FF4F85919491EDEA6B
:10100000F0E0E491E093F401C0E0C1CF10928000E1
:10101000109281008091810088608093810080918E
:101020008100816080938100E9E9F0E0E491F0E0E3
:10103000EE0FFF1FE358FF4F85919491EDEAF0E02A
:10104000E491E093F301A3CF1092B0001092B100AD
:101050008091B00082608093B0008091B100816087
:101060008093B100E9E9F0E0E491F0E0EE0FFF1FBA
:10107000E358FF4F859194919093F2018093F10191
:10108000EDEAF0E0E491E093F00181CF85B5887F4F
:10109000836085BD8BE987BD80E892E0A0E0B0E089
:1010A0008093FD019093FE01A093FF01B093000295
:1010B00080916E00826080936E006ACEC130F1F440
:1010C00080918100887F8160809381008FE097E22A
:1010D000909389008093880080E892E0A0E0B0E0DF
:1010E0008093F9019093FA01A093FB01B093FC0166
:1010F00080916F00826080936F004ACEC23021F0F1
:10110000C11146CE8FE0C7CF8FE08093B30080E857
:1011100092E0A0E0B0E08093F5019093F601A093F7
:10112000F701B093F80180917000826080937000A5
:101130002FCEEE0FFF1F0590F491E02D0994F89447
:02114000FFCFDF
:10114200FF000000004901A900D60096010701E551
:1011520000F90000000000E102B40275038A02AD4A
:10116200029A028B0200000000D003A900750374EA
:0E1172000348656C6C6F204D4454000D0A005C
:00000001FF
