:100000000C9463000C948B000C948B000C948B006C
:100010000C948B000C948B000C948B000C94B60603
:100020000C948B000C948B000C948B000C948B0024
:100030000C948B000C948B000C948B000C948B0014
:100040000C9490070C948B000C945E070C9438076A
:100050000C948B000C948B000C948B000C948B00F4
:100060000C94DA070C948B00000000002400270099
:100070002A000000000023002600290000000008DC
:10008000000201000003040700000000000000005F
:10009000010204081020408001020408102001021F
:1000A0000408102000000000250028002B00040494
:1000B0000404040404040202020202020303030310
:1000C00003030200F90811241FBECFEFD8E0DEBF02
:1000D000CDBF22E0AEE6B1E001C01D92AA3FB2075B
:1000E000E1F711E0A0E0B1E0E2EDFCE102C0059033
:1000F0000D92AE36B107D9F710E0C3E6D0E004C0E8
:100100002197FE010E946F0CC236D107C9F70E94E9
:100110005F090C94670E0C94000008950895AF9247
:10012000BF92CF92DF92EF92FF920F931F93CF93E4
:10013000DF936C017B018B01040F151FEB015E0146
:10014000AE18BF08C017D10759F06991D601ED91DB
:10015000FC910190F081E02DC6010995892B79F77A
:10016000C501DF91CF911F910F91FF90EF90DF902C
:10017000CF90BF90AF900895FC014481558160817C
:10018000718189EE92E00C948F00FC01538D448DB7
:10019000252F30E0842F90E0821B930B541710F032
:1001A000CF96089501970895FC01918D828D98173F
:1001B00061F0A28DAE0FBF2FB11D5D968C91928D17
:1001C0009F5F9F73928F90E008958FEF9FEF089548
:1001D000FC01918D828D981731F0828DE80FF11D11
:1001E000858D90E008958FEF9FEF0895FC01918D2C
:1001F000228D892F90E0805C9F4F821B91098F7325
:10020000992708958CE392E00E94F60021E0892B63
:1002100009F420E0822F089580E090E0892B29F0F6
:100220000E94020181110C9400000895FC01A48D2C
:10023000A80FB92FB11DA35ABF4F2C91848D90E008
:1002400001968F739927848FA689B7892C93A089EB
:10025000B1898C91837080648C93938D848D981375
:1002600006C00288F389E02D80818F7D8083089508
:10027000EF92FF920F931F93CF93DF93EC0181E0F6
:10028000888F9B8D8C8D98131AC0E889F98980819D
:1002900085FF15C09FB7F894EE89FF896083E889D0
:1002A000F98980818370806480839FBF81E090E0C2
:1002B000DF91CF911F910F91FF90EF900895F62E4F
:1002C0000B8D10E00F5F1F4F0F731127E02E8C8DE9
:1002D0008E110CC00FB607FCFACFE889F98980812E
:1002E00085FFF5CFCE010E941601F1CFEB8DEC0F0B
:1002F000FD2FF11DE35AFF4FF0829FB7F8940B8F4B
:10030000EA89FB8980818062CFCFCF93DF93EC01B4
:10031000888D8823B9F0AA89BB89E889F9898C91ED
:1003200085FD03C0808186FD0DC00FB607FCF7CFA9
:100330008C9185FFF2CF808185FFEDCFCE010E94A9
:100340001601E9CFDF91CF910895833081F028F431
:10035000813099F08230A9F008958730A9F0883073
:10036000C9F08430B1F4809180008F7D03C080910A
:1003700080008F7780938000089584B58F7784BD47
:10038000089584B58F7DFBCF8091B0008F778093E7
:10039000B00008958091B0008F7DF9CF1F93CF9367
:1003A000DF93282F30E0F901E458FF4F8491F901E1
:1003B000E057FF4FD491F901E255FF4FC491CC2390
:1003C000A9F0162F81110E94A501EC2FF0E0EE0F8D
:1003D000FF1FEC55FF4FA591B4918FB7F894EC91A6
:1003E000111108C0D095DE23DC938FBFDF91CF9130
:1003F0001F910895DE2BF8CFCF93DF9390E0FC019F
:10040000E057FF4F249182559F4FFC018491882330
:10041000D1F090E0880F991FFC01E859FF4FA5919A
:10042000B491FC01EC55FF4FC591D491623071F449
:100430009FB7F8943C91822F809583238C93E88119
:100440002E2B28839FBFDF91CF9108958FB7F8940B
:10045000EC912E2B2C938FBFF6CFCF92DF92EF92A1
:10046000FF921F93CF93DF936B017C018091030177
:10047000883051F08F3FF1F0DF91CF911F91FF90C5
:10048000EF90DF90CF900895E2ECF0E0C491C7FDCB
:10049000F3CF61E088E00E94FC01CC2309F478C02E
:1004A000C23009F09CC08091B100887F8460809345
:1004B000B10072C088E080930301E2ECF0E0C491E7
:1004C000CF3FD1F2C13021F150F0C23009F43EC02B
:1004D000C7FDD2CF61E088E00E94FC01E1CF14BCEF
:1004E00015BC84B5826084BD85B5816085BDE6EBB1
:1004F000F0E0E491F0E0EE0FFF1FEC55FF4F859127
:100500009491E8E9F0E0E491E0932F02C0E0C1CFDC
:100510001092800010928100809181008860809309
:10052000810080918100816080938100E6EBF0E0A2
:10053000E491F0E0EE0FFF1FEC55FF4F8591949191
:10054000E8E9F0E0E491E0932E02A3CF1092B0002E
:100550001092B1008091B00082608093B0008091D1
:10056000B10081608093B100E6EBF0E0E491F0E04F
:10057000EE0FFF1FEC55FF4F8591949190932D0244
:1005800080932C02E8E9F0E0E491E0932B0281CF24
:1005900085B5887F836085BDDBE910E0A0E4B6E027
:1005A000A70196010E94FC0B28EE33E040E050E0EA
:1005B0000E944D0CC130F1F0C23081F1C1115CCF0D
:1005C000D7BD209338023093390240933A025093BA
:1005D0003B0280916E00826080936E004DCFC130EF
:1005E00031F480918100887F816080938100DFE019
:1005F00017E2D4CF8D2F912F90938900809388009C
:1006000020933402309335024093360250933702E0
:1006100080916F00826080936F002ECFD093B300E3
:1006200020933002309331024093320250933302D0
:10063000809170008260809370001ECF1F93CF93D3
:10064000DF93182FEB0161E00E94FC01209739F441
:1006500060E0812FDF91CF911F910C94CE01CF3FAD
:10066000D10511F461E0F5CFE12FF0E0E458FF4F40
:10067000E491E33031F140F4E130B1F0E230E1F007
:10068000C038D1057CF7E4CFE73029F1E83059F1E3
:10069000E430B1F780918000806280938000D09335
:1006A0008B00C0938A0004C084B5806884BDC7BD38
:1006B000DF91CF911F91089584B5806284BDC8BD3C
:1006C000F7CF80918000806880938000D09389006C
:1006D000C0938800EDCF8091B00080688093B00017
:1006E000C093B300E5CF8091B00080628093B000EA
:1006F000C093B400DDCFCF93DF939C01982F832F5D
:1007000021304FEF340714F491E08FEFC92FD82F29
:10071000CF3FD10519F014F0CFEFD0E08091E50282
:100720009091E602009729F00197C9F0DF91CF91EF
:1007300008958091E70237FD0AC0BE010E941E03A2
:1007400060E08091E802DF91CF910C94CE016627A2
:1007500077276C1B7D0B0E941E0361E0F2CF809116
:10076000E70237FD0BC0BE010E941E0370E060E08F
:100770008091E802DF91CF910C941E0370E060E05D
:100780000E941E03662777276C1B7D0BF1CF3FB7B6
:10079000F89480911C0290911D02A0911E02B091CC
:1007A0001F0226B5A89B05C02F3F19F00196A11D79
:1007B000B11D3FBFBA2FA92F982F8827BC01CD01AB
:1007C000620F711D811D911D42E0660F771F881F0A
:1007D000991F4A95D1F708958F929F92AF92BF9239
:1007E000CF92DF92EF92FF924B015C010E94C70310
:1007F0006B017C010E94C7036C197D098E099F095A
:10080000683E734081059105A8F321E0821A9108A2
:10081000A108B10888EEC80E83E0D81EE11CF11CC7
:1008200081149104A104B10429F7FF90EF90DF90A7
:10083000CF90BF90AF909F908F90089585ED80935B
:10084000BC008091BC0084FDFCCF1092260208956C
:100850002091D001260F3327331F21323105ECF4CC
:1008600020912602FC0190E080E0243069F082E0D3
:100870000895A091D0012191AC0140555E4FA40F85
:10088000B52FB11D2C930196861798F38091D00156
:10089000680F6093D00180E0089581E00895089585
:1008A000E0912A0280912902E81730F4F0E0E05745
:1008B000FE4F808190E008958FEF9FEF0895909113
:1008C0002A02809129022FEF3FEF981748F4E92F71
:1008D000F0E0E057FE4F208130E09F5F90932A02C6
:1008E000C90108958091290290912A02891B990BD0
:1008F0000895CF92DF92EF92FF920F931F93CF93C1
:10090000DF937C01CB018A0120918F01222389F0A2
:10091000EB016B01C40ED51ECC15DD0569F06991A4
:10092000D701ED91FC910190F081E02DC70109956F
:10093000F3CF642F0E942804C801DF91CF911F914B
:100940000F91FF90EF90DF90CF900895CF93DF93BA
:100950001F92CDB7DEB7698320918F012223F9F072
:1009600020912702203258F021E030E0FC0133834F
:10097000228390E080E00F90DF91CF9108958091E5
:100980002802E82FF0E0E159FE4F998190838F5FB4
:10099000809328028093270281E090E0ECCF61E011
:1009A000CE0101960E942804F7CFCF93FC01C481A9
:1009B00021E020938F01C0936E01109228021092C3
:1009C00027028485682B89ED92E00E94A60490910D
:1009D0002702913208F03FC0809126028111FCCF9E
:1009E00082E08093260281E0809325028FEF80933E
:1009F000F3011092150290931402AFE6B1E0E4EF18
:100A0000F1E080E098132FC0109216028091160238
:100A1000CC0FC82BC093160280912402813039F587
:100A200010922402809116028093BB008091BC003A
:100A300083FDF8CF85EC8093BC0080912602823044
:100A4000E1F38091F3018F3F31F08091F301803227
:100A500011F08091F3011092280210922702109257
:100A60008F01CF9108952D9121938F5FCBCF85EE8C
:100A7000E2CF88E08093F50260E089EE92E00C948A
:100A8000D504089590E080E00895FB0101900020D6
:100A9000E9F73197AF01461B570BDC01ED91FC9153
:100AA0000280F381E02D0994CF93DF93BC018CE3A6
:100AB00092E00E944505EC016AE371E08CE392E06C
:100AC0000E9445058C0F9D1FDF91CF9108950F93D4
:100AD0001F93CF93DF93EC0188819981009759F0A0
:100AE0002A813B812617370730F081E0DF91CF91D3
:100AF0001F910F9108958B016F5F7F4F0E949A0D98
:100B0000009759F0998388831B830A832C813D8148
:100B1000232B59F7FC011082E8CF80E0E7CFCF9379
:100B2000DF93EC0188819981009711F00E94110DEB
:100B3000198218821D821C821B821A82DF91CF913A
:100B400008950F931F93CF93DF93EC010C811D81C8
:100B50000F5F1F4FB8010E946705882391F028811D
:100B600039818C819D816BE671E0820F931F0E9419
:100B7000600E1D830C83CE01DF91CF911F910F91E9
:100B80000895CE010E948F05F6CFCF92DF92EF92AB
:100B9000FF920F931F93CF93DF93CDB7DEB762978A
:100BA0000FB6F894DEBF0FBECDBF8C01CB01F801AC
:100BB0001182108213821282158214824AE09E01F1
:100BC0002F5F3F4F6901B9010E94C70BF6010190E9
:100BD0000020E9F731977F01EC18FD08B701C80143
:100BE0000E946705811112C0C8010E948F0562969C
:100BF0000FB6F894DEBF0FBECDBFDF91CF911F912E
:100C00000F91FF90EF90DF90CF900895F801F5825B
:100C1000E482B601808191810E94600EE8CFCF937B
:100C2000DF93EC01198218821B821A821D821C82BA
:100C300068E070E00E946705811105C0CE01DF9178
:100C4000CF910C948F0588E090E09D838C836DE3B9
:100C500071E088819981DF91CF910C94600EEF92C1
:100C6000FF920F931F93CF93DF93EC01FB01E08082
:100C7000F180E114F10411F10481158101151105D0
:100C8000A9F08C819D81080F191FB801CE010E9427
:100C90006705882399F0288139818C819D81B7016E
:100CA000820F931F0E94600E1D830C83CE01DF9183
:100CB000CF911F910F91FF90EF900895CE010E9468
:100CC0008F05F4CFFC01808191810C94110D0F935D
:100CD0001F93CF938C01C62F0E94D5046C2F6460A4
:100CE000C8010E94D5046C2F6B7FC8010E94D504F7
:100CF00083EC90E00197F1F7CF911F910F91089548
:100D00000F931F93CF93DF938C01D62FC42F607F57
:100D1000642B0E94670680E1D89FB00111246C2BE0
:100D2000C801DF91CF911F910F910C946706682F36
:100D3000606840E089EE92E00C94800640E061E05B
:100D400089EE92E00E9480068BE39FE10197F1F724
:100D50008091F202882319F080E00C9497060895A0
:100D600041E00E94800681E090E008951F920F927A
:100D70000FB60F9211242F933F934F935F936F936E
:100D80007F938F939F93AF93BF93EF93FF93809144
:100D9000300290913102A0913202B0913302892B3E
:100DA0008A2B8B2BD1F190912B02E0912C02F091A8
:100DB0002D028081892780838091300290913102B9
:100DC000A0913202B0913302181619061A061B06BA
:100DD0009CF48091300290913102A0913202B09146
:100DE00033020197A109B109809330029093310237
:100DF000A0933202B0933302FF91EF91BF91AF9174
:100E00009F918F917F916F915F914F913F912F9122
:100E10000F900FBE0F901F90189580910301E2EC88
:100E2000F0E0E4919FEF90930301E13051F030F056
:100E3000E23069F060E00E94CE01DECF10926E00D9
:100E4000F9CF90916F009D7F90936F00F3CF9091B9
:100E500070009D7F9093700091E09093B00090910E
:100E6000B100987F94609093B1001092B300E2CFEC
:100E70001F920F920FB60F9211242F933F934F930F
:100E80005F936F937F938F939F93AF93BF93EF93F2
:100E9000FF938CE392E00E941601FF91EF91BF91C6
:100EA000AF919F918F917F916F915F914F913F9102
:100EB0002F910F900FBE0F901F9018951F920F92B9
:100EC0000FB60F9211242F938F939F93EF93FF935D
:100ED000E0914C02F0914D028081E0915202F0913C
:100EE000530282FD1BC09081809155028F5F8F73EA
:100EF00020915602821741F0E0915502F0E0E45C47
:100F0000FD4F958F80935502FF91EF919F918F91A7
:100F10002F910F900FBE0F901F9018958081F4CFE6
:100F20001F920F920FB60F9211242F933F938F931E
:100F30009F93AF93BF938091180290911902A09153
:100F40001A02B0911B023091170223E0230F2D37B4
:100F500058F50196A11DB11D209317028093180228
:100F600090931902A0931A02B0931B0280911C0265
:100F700090911D02A0911E02B0911F020196A11D29
:100F8000B11D80931C0290931D02A0931E02B0938A
:100F90001F02BF91AF919F918F913F912F910F9021
:100FA0000FBE0F901F90189526E8230F0296A11DE3
:100FB000B11DD2CF1F920F920FB60F9211242F9313
:100FC0003F934F935F936F937F938F939F93AF93D1
:100FD000BF93EF93FF938091B900887F803609F427
:100FE0004AC0F0F5883209F4A7C018F5803109F439
:100FF0009BC0B8F4882309F4F9C0883009F494C080
:10100000FF91EF91BF91AF919F918F917F916F91E0
:101010005F914F913F912F910F900FBE0F901F90B6
:101020001895883109F488C0803251F78093F30114
:1010300014C0803409F49DC040F48033B9F3883380
:10104000F9F68093F30185ECB0C0803509F485C0D2
:10105000883509F496C0883499F60E941E04D0CFD2
:10106000883909F48CC038F5883729F050F488366F
:1010700011F0803729F683E0809326021092F20166
:1010800057C0883809F47BC0803919F0803809F0DE
:10109000B7CF8091F201803208F071C0E091F20187
:1010A00081E08E0F8093F2018091BB00F0E0EE5260
:1010B000FE4F80833DC0803B39F0E0F4803A09F474
:1010C00079C0883A09F09CCF84E080932602109280
:1010D000D1011092D001E0912202F09123020995F2
:1010E0008091D00181110FC081E08093D0011092D6
:1010F000B00109C0803C09F4A6CF883C09F4A3CF15
:10110000883B09F07DCFE091D10181E08E0F809383
:10111000D101F0E0E055FE4F80818093BB009091BB
:10112000D1018091D00129C0809116028093BB002B
:1011300085EC8093BC0064CF9091150280911402DD
:10114000981758F5E091150281E08E0F80931502F3
:10115000F0E0EC50FE4F8081E9CFE091150281E094
:101160008E0F809315028091BB00F0E0EC50FE4F93
:10117000808390911502809114029817C8F285E837
:10118000D8CFE091150281E08E0F809315028091F7
:10119000BB00F0E0EC50FE4F80838091250281116E
:1011A0005CCF81E08093240284EA8093BC0010929B
:1011B000260226CF85EC8093BC00109226028091F7
:1011C000F201803230F4E091F201F0E0EE52FE4F95
:1011D00010826091F20170E0E0912002F091210212
:1011E00082ED91E009951092F2010ACF1092F3017D
:1011F00034CFCF93DF93ECE3F2E01382128288EED8
:1012000093E0A0E0B0E084839583A683B7832EE0CB
:1012100031E03183208325EC30E03587248724ECCE
:1012200030E03787268720EC30E0318B208B21ECB3
:1012300030E0338B228B22EC30E0358B248B26EC94
:1012400030E0378B268B118E128E138E148EE9EDC3
:10125000F2E01382128284839583A683B78380E2AF
:1012600091E091838083E9EEF2E01382128282E3BF
:1012700091E091838083118687E2848380E1828775
:1012800082E083871486C5EED2E081E090E0998306
:10129000888385E08A8383E08B8361E085E00E9418
:1012A000FC0161E08B810E94FC0160E08A810E9468
:1012B000CE0160E08B81DF91CF910C94CE01CF9372
:1012C000DF93CDB7DEB72C970FB6F894DEBF0FBE15
:1012D000CDBF789484B5826084BD84B5816084BDBF
:1012E00085B5826085BD85B5816085BD80916E00C4
:1012F000816080936E0010928100809181008260F5
:101300008093810080918100816080938100809131
:1013100080008160809380008091B1008460809320
:10132000B1008091B00081608093B00080917A001C
:10133000846080937A0080917A00826080937A0042
:1013400080917A00816080937A0080917A00806831
:1013500080937A001092C10010922A021092290202
:1013600010922802109227021092260281E08093A8
:1013700025021092240261E082E10E94CE0161E028
:1013800083E10E94CE018091B9008E7F8093B900E5
:101390008091B9008D7F8093B90088E48093B80074
:1013A00085E48093BC008DE890E0909323028093C5
:1013B00022028EE890E09093210280932002109206
:1013C000EE028091F402823018F098E09093EE02E1
:1013D0008093F10262E370E080E090E00E94EC0311
:1013E0006091F50289EE92E00E94D50468EE73E008
:1013F00080E090E00E94EC0360E389EE92E00E94BE
:1014000067060BE416E4C8010197F1F760E389EE83
:1014100092E00E946706C8010197F1F760E389EE48
:1014200092E00E94670683E592E00197F1F760E29F
:1014300089EE92E00E9467066091EE02606240E0F1
:1014400089EE92E00E94800684E08093EF0240E003
:101450006CE089EE92E00E9480060E949E0612E0F7
:101460001093F00240E066E089EE92E00E94800670
:1014700040E062E089EE92E00E9480068BE39FE10B
:101480000197F1F70E9439050E949E0660E971E01C
:1014900080E090E00E942D02E0914C02F0914D021C
:1014A0001083E0914802F09149021082E0914A02D3
:1014B000F0914B028FEC808310925402E091500225
:1014C000F091510286E08083E0914E02F0914F024C
:1014D000808180618083E0914E02F0914F02808193
:1014E00088608083E0914E02F0914F028081806895
:1014F0008083E0914E02F0914F0280818F7D808346
:1015000086E491E00E9454058FEF90E00E947B03F7
:1015100080E591E00E94540560ED77E080E090E086
:101520000E94EC0390E080E00E947B0381E09FEF4B
:101530000E947B0389E591E00E94540568EB7BE003
:1015400080E090E00E94EC0390E080E00E947B034A
:101550000E94390583E00E94970666E471E089EEF7
:1015600092E00E94450568EE73E080E090E00E9402
:10157000EC030E949E0668EC70E080E090E00E9420
:10158000EC0364EF71E080E090E00E942D0262E0E5
:1015900082E00E94FC0182E00E94970661E671E011
:1015A00089EE92E00E9445053EE7632E30E0732EFF
:1015B00042E9E42E40E0F42E50EBC52E50E0D52E4B
:1015C00060E0A62E60E0B62E88248394912C93E3ED
:1015D000592E24E1422EF3018491F7011491F60172
:1015E0000491002389F081110E94A501E02FF0E011
:1015F000EE0FFF1FEE58FF4FA591B4918C91182369
:1016000033243394111101C0312CF32DF1703F2E8E
:1016100080910001F817F0F500910101109102018D
:10162000063011050CF04AC0509EC001519E900D2D
:1016300011249195819591090E947B0382E00E947B
:101640009706409EB001419E700D1124CE01019677
:101650000E94C505CE0107960E940F06BE016F5F6E
:101660007F4FCE0107960E942F060E94A1050E947F
:10167000BC00CE0107960E946206CE0101960E9430
:1016800062068091010190910201019690930201FE
:10169000809301013092000162E370E080E090E00D
:1016A0000E94EC03A114B10409F495CF0E94020139
:1016B000882309F48CCF0E94000089CF06301105E1
:1016C00071F40E9439050E949E0684E39FEF0E94F8
:1016D0007B0382E00E94970660E570E0B7CF073099
:1016E000110551F487E69FEF0E947B0382E00E9480
:1016F00097066CE370E0AACF0830110551F48AE92F
:101700009FEF0E947B0382E00E94970668E270E0F0
:101710009DCF0930110551F48DEC9FEF0E947B03A2
:1017200082E00E94970664E170E090CF0A301105D4
:1017300009F0B0CF0E9439050E949E0690E080E03B
:101740000E947B0382E00E94970670E060E0CE0179
:1017500001960E94C505CE0107960E940F06BE01A4
:101760006F5F7F4FCE0107960E942F060E94A10552
:101770000E94BC00CE0107960E946206CE0101962F
:101780000E946206909202018092010183CFBB27E2
:101790004A3031F4992322F4BDE2909581959F4F10
:1017A0000C94D30BBB27FB015527AA27880F991F41
:1017B000AA1FA41710F0A41B83955051B9F7A05D80
:1017C000AA3308F0A95DA193009779F7B111B193FD
:1017D0001192CB010C94EC0BDC01FC01672F719191
:1017E0007723E1F7329704C07C916D937083629107
:1017F000AE17BF07C8F308950E943E0CA59F900D39
:10180000B49F900DA49F800D911D112408952F92D7
:101810003F924F925F926F927F928F929F92AF9280
:10182000BF92CF92DF92EF92FF920F931F93CF93CD
:10183000DF93CDB7DEB7CA1BDB0B0FB6F894DEBF64
:101840000FBECDBF09942A88398848885F846E848A
:101850007D848C849B84AA84B984C884DF80EE80D4
:10186000FD800C811B81AA81B981CE0FD11D0FB6DD
:10187000F894DEBF0FBECDBFED010895A29FB00169
:10188000B39FC001A39F700D811D1124911DB29FB4
:10189000700D811D1124911D0895A1E21A2EAA1B1D
:1018A000BB1BFD010DC0AA1FBB1FEE1FFF1FA21710
:1018B000B307E407F50720F0A21BB30BE40BF50B0D
:1018C000661F771F881F991F1A9469F76095709596
:1018D000809590959B01AC01BD01CF010895EE0F5D
:1018E000FF1F0590F491E02D09940F931F93CF9360
:1018F000DF938230910510F482E090E0E091F802ED
:10190000F091F90230E020E0B0E0A0E0309799F4E7
:101910002115310509F44AC0281B390B2430310543
:10192000D8F58A819B816115710589F1FB0193834B
:101930008283FE0111C040815181028113814817C9
:101940005907E0F04817590799F4109761F012967B
:101950000C93129713961C933296CF01DF91CF917F
:101960001F910F9108950093F8021093F902F4CF9C
:101970002115310551F04217530738F0A901DB0159
:101980009A01BD01DF01F801C1CFEF01F9CF9093BA
:10199000F9028093F802CDCFFE01E20FF31F81938D
:1019A00091932250310939832883D7CF2091F602B1
:1019B0003091F702232B41F4209106013091070169
:1019C0003093F7022093F602209104013091050133
:1019D0002115310541F42DB73EB7409108015091D2
:1019E0000901241B350BE091F602F091F702E21792
:1019F000F307A0F42E1B3F0B2817390778F0AC0132
:101A00004E5F5F4F2417350748F04E0F5F1F50930E
:101A1000F7024093F602819391939FCFF0E0E0E0CC
:101A20009CCFCF93DF930097E9F0FC0132971382AC
:101A30001282A091F802B091F902ED0130E020E0AD
:101A40001097A1F420813181820F931F2091F6021B
:101A50003091F7022817390709F061C0F093F702B7
:101A6000E093F602DF91CF910895EA01CE17DF07E8
:101A7000E8F54A815B819E0141155105B1F7E90105
:101A8000FB83EA8349915991C40FD51FEC17FD07D9
:101A900061F4808191810296840F951FE9019983F9
:101AA0008883828193819B838A83F0E0E0E01296B1
:101AB0008D919C9113970097B9F52D913C911197B9
:101AC000CD010296820F931F2091F6023091F7020A
:101AD0002817390739F6309751F51092F90210920C
:101AE000F802B093F702A093F602BCCFD383C2836F
:101AF00040815181840F951FC817D90761F44E5F4B
:101B00005F4F88819981480F591F518340838A8193
:101B10009B81938382832115310509F0B0CFF09327
:101B2000F902E093F8029ECFFD01DC01C0CF1382E1
:101B30001282D7CFB0E0A0E0E0EAFDE00C94090CFF
:101B40008C01009751F4CB010E94750C8C01C801E7
:101B5000CDB7DEB7E0E10C94250CFC01E60FF71FD2
:101B60009C0122503109E217F30708F49DC0D90106
:101B7000CD91DC911197C617D70798F0C530D105E4
:101B800030F3CE0104978617970708F3C61BD70BCF
:101B90002297C193D1936D937C93CF010E94110D35
:101BA000D6CF5B01AC1ABD0A4C018C0E9D1EA091D4
:101BB000F802B091F902512C412CF12CE12C109734
:101BC00031F58091F6029091F7028815990509F098
:101BD0005CC04616570608F058C0809104019091E9
:101BE0000501009741F48DB79EB7409108015091CF
:101BF0000901841B950BE817F90708F055C0F0930D
:101C0000F702E093F602F90171836083A0CF8D9112
:101C10009C91119712966C90129713967C90139743
:101C2000A815B90559F56C0142E0C40ED11CCA14BF
:101C3000DB0420F1AC014A195B09DA011296159711
:101C400080F06282738251834083D9016D937C93CB
:101C5000E114F10471F0D7011396FC93EE931297FF
:101C600076CF22968C0F9D1FF90191838083F3011B
:101C7000EFCFF093F902E093F80269CF48165906C6
:101C800008F42C017D01D3019ACFCB010E94750C81
:101C90007C01009749F0AE01B8010E94570EC801BF
:101CA0000E94110D870153CF10E000E050CFFB01DF
:101CB000DC0102C001900D9241505040D8F70895C8
:101CC000FB01DC0101900D920020E1F70895F894EA
:021CD000FFCF44
:101CD200010100FF0000FA0280000000000038014C
:101CE2008F00C5008501F600D400E8000000000066
:101CF200A604790442054F0472045F0450040000F4
:101D02000000B0068F00420541050D0A00537065C0
:101D12006564203A200048656C6C6F204D44540085
:101D22005475726E20434357005475726E204357A8
:0E1D3200005370656564203A203020250000C3
:107E0000112484B714BE81FFF0D085E080938100F7
:107E100082E08093C00088E18093C10086E0809377
:107E2000C20080E18093C4008EE0C9D0259A86E02C
:107E300020E33CEF91E0309385002093840096BBD3
:107E4000B09BFECF1D9AA8958150A9F7CC24DD24C4
:107E500088248394B5E0AB2EA1E19A2EF3E0BF2EE7
:107E6000A2D0813461F49FD0082FAFD0023811F036
:107E7000013811F484E001C083E08DD089C08234E0
:107E800011F484E103C0853419F485E0A6D080C0E4
:107E9000853579F488D0E82EFF2485D0082F10E0AE
:107EA000102F00270E291F29000F111F8ED06801E7
:107EB0006FC0863521F484E090D080E0DECF843638
:107EC00009F040C070D06FD0082F6DD080E0C81688
:107ED00080E7D80618F4F601B7BEE895C0E0D1E017
:107EE00062D089930C17E1F7F0E0CF16F0E7DF06D8
:107EF00018F0F601B7BEE89568D007B600FCFDCFD4
:107F0000A601A0E0B1E02C9130E011968C91119780
:107F100090E0982F8827822B932B1296FA010C0160
:107F200087BEE89511244E5F5F4FF1E0A038BF0790
:107F300051F7F601A7BEE89507B600FCFDCF97BE46
:107F4000E89526C08437B1F42ED02DD0F82E2BD052
:107F50003CD0F601EF2C8F010F5F1F4F84911BD097
:107F6000EA94F801C1F70894C11CD11CFA94CF0C13
:107F7000D11C0EC0853739F428D08EE10CD085E9AC
:107F80000AD08FE07ACF813511F488E018D01DD067
:107F900080E101D065CF982F8091C00085FFFCCF94
:107FA0009093C60008958091C00087FFFCCF809118
:107FB000C00084FD01C0A8958091C6000895E0E648
:107FC000F0E098E1908380830895EDDF803219F02E
:107FD00088E0F5DFFFCF84E1DECF1F93182FE3DFCA
:107FE0001150E9F7F2DF1F91089580E0E8DFEE27F6
:047FF000FF270994CA
:027FFE00040479
:0400000300007E007B
:00000001FF
