:100000000C9463000C948B000C948B000C948B006C
:100010000C948B000C948B000C948B000C94A50515
:100020000C948B000C948B000C948B000C948B0024
:100030000C948B000C948B000C948B000C948B0014
:100040000C947F060C948B000C944D060C942706A0
:100050000C948B000C948B000C948B000C948B00F4
:100060000C94C9060C948B000000000024002700AB
:100070002A000000000023002600290000000008DC
:10008000000201000003040700000000000000005F
:10009000010204081020408001020408102001021F
:1000A0000408102000000000250028002B00040494
:1000B0000404040404040202020202020303030310
:1000C00003030200E80711241FBECFEFD8E0DEBF14
:1000D000CDBF11E0A0E0B1E0E2E6F5E102C005909D
:1000E0000D92A235B107D9F722E0A2E5B1E001C037
:1000F0001D92AA3DB207E1F710E0C3E6D0E004C0CC
:100100002197FE010E949A0AC236D107C9F70E94C0
:100110004E080C94AF0A0C94000008950895AF9215
:10012000BF92CF92DF92EF92FF920F931F93CF93E4
:10013000DF936C017B018B01040F151FEB015E0146
:10014000AE18BF08C017D10759F06991D601ED91DB
:10015000FC910190F081E02DC6010995892B79F77A
:10016000C501DF91CF911F910F91FF90EF90DF902C
:10017000CF90BF90AF900895FC01538D448D252FF3
:1001800030E0842F90E0821B930B541710F0CF9631
:10019000089501970895FC01918D828D981761F063
:1001A000A28DAE0FBF2FB11D5D968C91928D9F5F7A
:1001B0009F73928F90E008958FEF9FEF0895FC0159
:1001C000918D828D981731F0828DE80FF11D858D0C
:1001D00090E008958FEF9FEF0895FC01918D228D9F
:1001E000892F90E0805C9F4F821B91098F73992724
:1001F000089580E292E00E94ED0021E0892B09F44D
:1002000020E0822F089580E090E0892B29F00E9461
:10021000F90081110C9400000895FC01A48DA80F31
:10022000B92FB11DA35ABF4F2C91848D90E0019638
:100230008F739927848FA689B7892C93A089B18958
:100240008C91837080648C93938D848D981306C0F9
:100250000288F389E02D80818F7D80830895EF925D
:10026000FF920F931F93CF93DF93EC0181E0888F70
:100270009B8D8C8D98131AC0E889F989808185FF40
:1002800015C09FB7F894EE89FF896083E889F989E2
:1002900080818370806480839FBF81E090E0DF91E4
:1002A000CF911F910F91FF90EF900895F62E0B8D37
:1002B00010E00F5F1F4F0F731127E02E8C8D8E11F2
:1002C0000CC00FB607FCFACFE889F989808185FF59
:1002D000F5CFCE010E940D01F1CFEB8DEC0FFD2F7C
:1002E000F11DE35AFF4FF0829FB7F8940B8FEA8914
:1002F000FB8980818062CFCFCF93DF93EC01888D23
:100300008823B9F0AA89BB89E889F9898C9185FD90
:1003100003C0808186FD0DC00FB607FCF7CF8C911E
:1003200085FFF2CF808185FFEDCFCE010E940D01C8
:10033000E9CFDF91CF910895833081F028F48130A7
:1003400099F08230A9F008958730A9F08830C9F07B
:100350008430B1F4809180008F7D03C08091800053
:100360008F7780938000089584B58F7784BD08953A
:1003700084B58F7DFBCF8091B0008F778093B000E4
:1003800008958091B0008F7DF9CF1F93CF93DF93B5
:10039000282F30E0F901E458FF4F8491F901E0572C
:1003A000FF4FD491F901E255FF4FC491CC23A9F03E
:1003B000162F81110E949C01EC2FF0E0EE0FFF1F21
:1003C000EC55FF4FA591B4918FB7F894EC911111B2
:1003D00008C0D095DE23DC938FBFDF91CF911F91B2
:1003E0000895DE2BF8CFCF93DF9390E0FC01E05728
:1003F000FF4F249182559F4FFC0184918823D1F0B7
:1004000090E0880F991FFC01E859FF4FA591B49126
:10041000FC01EC55FF4FC591D491623071F49FB748
:10042000F8943C91822F809583238C93E8812E2B26
:1004300028839FBFDF91CF9108958FB7F894EC91F7
:100440002E2B2C938FBFF6CFCF92DF92EF92FF929D
:100450001F93CF93DF936B017C0180910301883060
:1004600051F08F3FF1F0DF91CF911F91FF90EF900E
:10047000DF90CF900895E2ECF0E0C491C7FDF3CF98
:1004800061E088E00E94F301CC2309F478C0C23017
:1004900009F09CC08091B100887F84608093B10096
:1004A00072C088E080930301E2ECF0E0C491CF3F9A
:1004B000D1F2C13021F150F0C23009F43EC0C7FD85
:1004C000D2CF61E088E00E94F301E1CF14BC15BCFB
:1004D00084B5826084BD85B5816085BDE6EBF0E0C2
:1004E000E491F0E0EE0FFF1FEC55FF4F85919491E2
:1004F000E8E9F0E0E491E0931302C0E0C1CF10928C
:10050000800010928100809181008860809381003A
:1005100080918100816080938100E6EBF0E0E491BE
:10052000F0E0EE0FFF1FEC55FF4F85919491E8E945
:10053000F0E0E491E0931202A3CF1092B000109289
:10054000B1008091B00082608093B0008091B100D2
:1005500081608093B100E6EBF0E0E491F0E0EE0F13
:10056000FF1FEC55FF4F859194919093110280935A
:100570001002E8E9F0E0E491E0930F0281CF85B545
:10058000887F836085BDDBE910E0A0E4B6E0A701C9
:1005900096010E948F0A28EE33E040E050E00E946E
:1005A0006D0AC130F1F0C23081F1C1115CCFD7BD0D
:1005B00020931C0230931D0240931E0250931F0291
:1005C00080916E00826080936E004DCFC13031F417
:1005D00080918100887F816080938100DFE017E255
:1005E000D4CF8D2F912F90938900809388002093F2
:1005F00018023093190240931A0250931B02809103
:100600006F00826080936F002ECFD093B300209351
:1006100014023093150240931602509317028091F2
:1006200070008260809370001ECF1F93CF93DF9382
:10063000182FEB0161E00E94F301209739F460E08C
:10064000812FDF91CF911F910C94C501CF3FD10530
:1006500011F461E0F5CFE12FF0E0E458FF4FE491B1
:10066000E33031F140F4E130B1F0E230E1F0C03894
:10067000D1057CF7E4CFE73029F1E83059F1E430D7
:10068000B1F780918000806280938000D0938B00CE
:10069000C0938A0004C084B5806884BDC7BDDF9163
:1006A000CF911F91089584B5806284BDC8BDF7CFF6
:1006B00080918000806880938000D0938900C093EF
:1006C0008800EDCF8091B00080688093B000C09327
:1006D000B300E5CF8091B00080628093B000C093FA
:1006E000B400DDCFCF93DF939C01982F832F21306F
:1006F0004FEF340714F491E08FEFC92FD82FCF3F7D
:10070000D10519F014F0CFEFD0E08091C90290919B
:10071000CA02009729F00197C9F0DF91CF9108959F
:100720008091CB0237FD0AC0BE010E94150360E034
:100730008091CC02DF91CF910C94C5016627772779
:100740006C1B7D0B0E94150361E0F2CF8091CB0200
:1007500037FD0BC0BE010E94150370E060E0809180
:10076000CC02DF91CF910C94150370E060E00E9401
:100770001503662777276C1B7D0BF1CF3FB7F894E5
:100780008091000290910102A0910202B0910302B7
:1007900026B5A89B05C02F3F19F00196A11DB11DDC
:1007A0003FBFBA2FA92F982F8827BC01CD01620F18
:1007B000711D811D911D42E0660F771F881F991FD3
:1007C0004A95D1F708958F929F92AF92BF92CF92A0
:1007D000DF92EF92FF924B015C010E94BE036B011E
:1007E0007C010E94BE036C197D098E099F09683E39
:1007F000734081059105A8F321E0821A9108A108B0
:10080000B10888EEC80E83E0D81EE11CF11C8114EB
:100810009104A104B10429F7FF90EF90DF90CF90ED
:10082000BF90AF909F908F90089585ED8093BC000E
:100830008091BC0084FDFCCF10920A0208952091A3
:10084000B401260F3327331F21323105ECF42091F8
:100850000A02FC0190E080E0243069F082E0089513
:10086000A091B4012191AC014C565E4FA40FB52F5D
:10087000B11D2C930196861798F38091B401680FEF
:100880006093B40180E0089581E008950895E091B7
:100890000E0280910D02E81730F4F0E0EC58FE4FA4
:1008A000808190E008958FEF9FEF089590910E0260
:1008B00080910D022FEF3FEF981748F4E92FF0E0F9
:1008C000EC58FE4F208130E09F5F90930E02C901EB
:1008D000089580910D0290910E02891B990B089545
:1008E000CF92DF92EF92FF920F931F93CF93DF93FC
:1008F0007C01CB018A0120917301222389F0EB0155
:100900006B01C40ED51ECC15DD0569F06991D701C8
:10091000ED91FC910190F081E02DC7010995F3CF95
:10092000642F0E941F04C801DF91CF911F910F9186
:10093000FF90EF90DF90CF900895CF93DF931F92B9
:10094000CDB7DEB76983209173012223F9F020919E
:100950000B02203258F021E030E0FC013383228387
:1009600090E080E00F90DF91CF91089580910C028C
:10097000E82FF0E0ED5AFE4F998190838F5F8093CE
:100980000C0280930B0281E090E0ECCF61E0CE019D
:1009900001960E941F04F7CFCF93FC01C48121E090
:1009A00020937301C093520110920C0210920B021B
:1009B0008485682B8DEB92E00E949D0490910B0240
:1009C000913208F03FC080910A028111FCCF82E091
:1009D00080930A0281E0809309028FEF8093D70110
:1009E0001092F9019093F801A3E5B1E0E8EDF1E090
:1009F00080E098132FC01092FA018091FA01CC0F79
:100A0000C82BC093FA0180910802813039F5109209
:100A100008028091FA018093BB008091BC0083FDA5
:100A2000F8CF85EC8093BC0080910A028230E1F31C
:100A30008091D7018F3F31F08091D701803211F042
:100A40008091D70110920C0210920B021092730148
:100A5000CF9108952D9121938F5FCBCF85EEE2CF7B
:100A6000089590E080E00895FB0101900020E9F7EF
:100A70003197AF01461B570BDC01ED91FC910280D1
:100A8000F381E02D0994CF93DF93BC0180E292E0E3
:100A90000E943405EC0164E371E080E292E00E9480
:100AA00034058C0F9D1FDF91CF9108950F931F93F5
:100AB000CF938C01C62F0E94CC046C2F6460C801B8
:100AC0000E94CC046C2F6B7FC8010E94CC0483EC85
:100AD00090E00197F1F7CF911F910F9108950F9337
:100AE0001F93CF93DF938C01D62FC42F607F642B8D
:100AF0000E94560580E1D89FB00111246C2BC801DB
:100B0000DF91CF911F910F910C945605682F60686B
:100B100040E08DEC92E00C946F0540E061E08DECDC
:100B200092E00E946F058BE39FE10197F1F78091BE
:100B3000D602882319F080E00C948605089541E0E0
:100B40000E946F0581E090E008951F920F920FB60A
:100B50000F9211242F933F934F935F936F937F9343
:100B60008F939F93AF93BF93EF93FF938091140262
:100B700090911502A0911602B0911702892B8A2B31
:100B80008B2BD1F190910F02E0911002F0911102A4
:100B90008081892780838091140290911502A09111
:100BA0001602B0911702181619061A061B069CF4B5
:100BB0008091140290911502A0911602B091170233
:100BC0000197A109B1098093140290931502A09393
:100BD0001602B0931702FF91EF91BF91AF919F91D1
:100BE0008F917F916F915F914F913F912F910F90D6
:100BF0000FBE0F901F90189580910301E2ECF0E07A
:100C0000E4919FEF90930301E13051F030F0E23036
:100C100069F060E00E94C501DECF10926E00F9CF4E
:100C200090916F009D7F90936F00F3CF9091700033
:100C30009D7F9093700091E09093B0009091B100EF
:100C4000987F94609093B1001092B300E2CF1F920E
:100C50000F920FB60F9211242F933F934F935F93F0
:100C60006F937F938F939F93AF93BF93EF93FF9374
:100C700080E292E00E940D01FF91EF91BF91AF9150
:100C80009F918F917F916F915F914F913F912F91A4
:100C90000F900FBE0F901F9018951F920F920FB6D6
:100CA0000F9211242F938F939F93EF93FF93E091D3
:100CB0003002F09131028081E0913602F0913702EA
:100CC00082FD1BC09081809139028F5F8F732091CC
:100CD0003A02821741F0E0913902F0E0E05EFD4F08
:100CE000958F80933902FF91EF919F918F912F9172
:100CF0000F900FBE0F901F9018958081F4CF1F9218
:100D00000F920FB60F9211242F933F938F939F93BF
:100D1000AF93BF938091FC019091FD01A091FE01E2
:100D2000B091FF013091FB0123E0230F2D3758F5DF
:100D30000196A11DB11D2093FB018093FC019093AE
:100D4000FD01A093FE01B093FF01809100029091FC
:100D50000102A0910202B09103020196A11DB11DF2
:100D60008093000290930102A0930202B0930302C9
:100D7000BF91AF919F918F913F912F910F900FBE97
:100D80000F901F90189526E8230F0296A11DB11D04
:100D9000D2CF1F920F920FB60F9211242F933F9331
:100DA0004F935F936F937F938F939F93AF93BF9373
:100DB000EF93FF938091B900887F803609F44AC091
:100DC000F0F5883209F4A7C018F5803109F49BC00A
:100DD000B8F4882309F4F9C0883009F494C0FF916D
:100DE000EF91BF91AF919F918F917F916F915F91A3
:100DF0004F913F912F910F900FBE0F901F9018951C
:100E0000883109F488C0803251F78093D70114C02B
:100E1000803409F49DC040F48033B9F38833F9F687
:100E20008093D70185ECB0C0803509F485C0883542
:100E300009F496C0883499F60E941504D0CF8839F9
:100E400009F48CC038F5883729F050F4883611F051
:100E5000803729F683E080930A021092D60157C0AA
:100E6000883809F47BC0803919F0803809F0B7CF91
:100E70008091D601803208F071C0E091D60181E006
:100E80008E0F8093D6018091BB00F0E0EA54FE4FB4
:100E900080833DC0803B39F0E0F4803A09F479C0AA
:100EA000883A09F09CCF84E080930A021092B50141
:100EB0001092B401E0910602F09107020995809129
:100EC000B40181110FC081E08093B40110929401AC
:100ED00009C0803C09F4A6CF883C09F4A3CF883B25
:100EE00009F07DCFE091B50181E08E0F8093B501CF
:100EF000F0E0EC56FE4F80818093BB009091B501ED
:100F00008091B40129C08091FA018093BB0085ECE7
:100F10008093BC0064CF9091F9018091F8019817FB
:100F200058F5E091F90181E08E0F8093F901F0E02E
:100F3000E852FE4F8081E9CFE091F90181E08E0F08
:100F40008093F9018091BB00F0E0E852FE4F80836E
:100F50009091F9018091F8019817C8F285E8D8CFEF
:100F6000E091F90181E08E0F8093F9018091BB003F
:100F7000F0E0E852FE4F80838091090281115CCF3E
:100F800081E08093080284EA8093BC0010920A02F8
:100F900026CF85EC8093BC0010920A028091D60186
:100FA000803230F4E091D601F0E0EA54FE4F108236
:100FB0006091D60170E0E0910402F091050286EBA9
:100FC00091E009951092D6010ACF1092D70134CF43
:100FD000CF93DF93E0E2F2E01382128288EE93E097
:100FE000A0E0B0E084839583A683B78328E031E056
:100FF0003183208325EC30E03587248724EC30E0F2
:101000003787268720EC30E0318B208B21EC30E0D5
:10101000338B228B22EC30E0358B248B26EC30E0B6
:10102000378B268B118E128E138E148EEDEBF2E021
:101030001382128284839583A683B7838AE191E029
:1010400091838083EDECF2E0138212828CE291E0D6
:1010500091838083118687E2848380E1828782E0A6
:1010600083871486C9ECD2E081E090E0998388837D
:1010700085E08A8383E08B8361E085E00E94F30151
:1010800061E08B810E94F30160E08A810E94C501CA
:1010900060E08B81DF91CF910C94C501CF93DF93FA
:1010A00000D01F92CDB7DEB7789484B5826084BD3E
:1010B00084B5816084BD85B5826085BD85B581605C
:1010C00085BD80916E00816080936E0010928100DA
:1010D0008091810082608093810080918100816095
:1010E0008093810080918000816080938000809156
:1010F000B10084608093B1008091B00081608093E2
:10110000B00080917A00846080937A0080917A00A8
:10111000826080937A0080917A00816080937A0067
:1011200080917A00806880937A001092C10060E913
:1011300071E080E090E00E942402E0913002F091A2
:10114000310282E08083E0912C02F0912D02108226
:10115000E0912E02F0912F028FEC808310923802E2
:10116000E0913402F091350286E08083E091320212
:10117000F0913302808180618083E0913202F091AE
:101180003302808188608083E0913202F0913302E3
:10119000808180688083E0913202F0913302808107
:1011A0008F7D808387E391E00E9443058FEF90E07D
:1011B0000E94720381E491E00E94430560ED77E0B4
:1011C00080E090E00E94E30390E080E00E947203E0
:1011D00081E09FEF0E9472038AE491E00E94430540
:1011E00068EB7BE080E090E00E94E30390E080E029
:1011F0000E94720310920E0210920D0210920C02C5
:1012000010920B0210920A0281E080930902109260
:10121000080261E082E10E94C50161E083E10E9471
:10122000C5018091B9008E7F8093B9008091B9008B
:101230008D7F8093B90088E48093B80085E4809323
:10124000BC008DE890E090930702809306028EE840
:1012500090E090930502809304021092D202809154
:10126000D802823018F098E09093D2028093D50291
:1012700062E370E080E090E00E94E3036091D902B5
:101280008DEC92E00E94CC0468EE73E080E090E088
:101290000E94E30360E38DEC92E00E9456058BE42C
:1012A00096E40197F1F760E38DEC92E00E94560519
:1012B0002BE436E4C9010197F1F760E38DEC92E08D
:1012C0000E94560583E592E00197F1F760E28DEC0C
:1012D00092E00E9456056091D202606240E08DEC7F
:1012E00092E00E946F0584E08093D30240E06CE0BE
:1012F0008DEC92E00E946F050E948D0582E0809344
:10130000D40240E066E08DEC92E00E946F0540E080
:1013100062E08DEC92E00E946F058BE39FE1019704
:10132000F1F788E08093D90260E08DEC92E00E94B2
:10133000CC0483E00E94860567E371E08DEC92E0C7
:101340000E94340568EE73E080E090E00E94E303C1
:101350000E948D0568EC70E080E090E00E94E3035D
:1013600064EF71E080E090E00E94240262E082E09D
:101370000E94F30166246394712C0AE010E059E0A6
:10138000E52EF12C68E0C62ED12C77E0A72EB12CEB
:1013900092E9292E90E0392E20EB422E20E0522EA9
:1013A00030E0832E30E0932EEEE7F0E08491F101FF
:1013B000F491FA83F201F491F983FF2389F081110A
:1013C0000E949C012981E22FF0E0EE0FFF1FEE58F2
:1013D000FF4FA591B4918C913A81382381E009F4B3
:1013E00080E0817089838091000149814817E0F491
:1013F00080910101909102019B838A83863091053F
:1014000044F523E3FC012E9FC0012F9F900D112472
:101410009195819591090E9472038A819B81019621
:10142000909302018093010139813093000162E3BE
:1014300070E080E090E00E94E3038114910409F4DD
:10144000B3CF0E94F900882309F4A2CF0E940000C4
:101450009FCFEA81FB81369749F484E39FEF0E9496
:101460007203B0920201A0920101DECF2A813B817A
:101470002730310549F487E69FEF0E947203D0922E
:101480000201C0920101D0CF8A819B81089749F463
:101490008AE99FEF0E947203F0920201E09201013B
:1014A000C3CFEA81FB81399749F48DEC9FEF0E940D
:1014B00072031093020100930101B6CF2A813B8190
:1014C0002A30310509F0B0CF90E080E00E9472032D
:1014D0007092020160920101A7CFA1E21A2EAA1B0D
:1014E000BB1BFD010DC0AA1FBB1FEE1FFF1FA217D4
:1014F000B307E407F50720F0A21BB30BE40BF50BD1
:10150000661F771F881F991F1A9469F76095709559
:10151000809590959B01AC01BD01CF0108950E947B
:10152000A00AA59F900DB49F900DA49F800D911DC2
:1015300011240895EE0FFF1F0590F491E02D0994FA
:10154000A29FB001B39FC001A39F700D811D112404
:10155000911DB29F700D811D1124911D0895F89465
:02156000FFCFBB
:10156200010100FF000000002F018F00BC007C0180
:10157200ED00CB00DF00000000009D047004310587
:101582004604690456044704000000009F058F00CA
:10159200310530050D0A0048656C6C6F204D4454CE
:1015A200005475726E20434357005475726E204387
:0215B2005700E0
:107E0000112484B714BE81FFF0D085E080938100F7
:107E100082E08093C00088E18093C10086E0809377
:107E2000C20080E18093C4008EE0C9D0259A86E02C
:107E300020E33CEF91E0309385002093840096BBD3
:107E4000B09BFECF1D9AA8958150A9F7CC24DD24C4
:107E500088248394B5E0AB2EA1E19A2EF3E0BF2EE7
:107E6000A2D0813461F49FD0082FAFD0023811F036
:107E7000013811F484E001C083E08DD089C08234E0
:107E800011F484E103C0853419F485E0A6D080C0E4
:107E9000853579F488D0E82EFF2485D0082F10E0AE
:107EA000102F00270E291F29000F111F8ED06801E7
:107EB0006FC0863521F484E090D080E0DECF843638
:107EC00009F040C070D06FD0082F6DD080E0C81688
:107ED00080E7D80618F4F601B7BEE895C0E0D1E017
:107EE00062D089930C17E1F7F0E0CF16F0E7DF06D8
:107EF00018F0F601B7BEE89568D007B600FCFDCFD4
:107F0000A601A0E0B1E02C9130E011968C91119780
:107F100090E0982F8827822B932B1296FA010C0160
:107F200087BEE89511244E5F5F4FF1E0A038BF0790
:107F300051F7F601A7BEE89507B600FCFDCF97BE46
:107F4000E89526C08437B1F42ED02DD0F82E2BD052
:107F50003CD0F601EF2C8F010F5F1F4F84911BD097
:107F6000EA94F801C1F70894C11CD11CFA94CF0C13
:107F7000D11C0EC0853739F428D08EE10CD085E9AC
:107F80000AD08FE07ACF813511F488E018D01DD067
:107F900080E101D065CF982F8091C00085FFFCCF94
:107FA0009093C60008958091C00087FFFCCF809118
:107FB000C00084FD01C0A8958091C6000895E0E648
:107FC000F0E098E1908380830895EDDF803219F02E
:107FD00088E0F5DFFFCF84E1DECF1F93182FE3DFCA
:107FE0001150E9F7F2DF1F91089580E0E8DFEE27F6
:047FF000FF270994CA
:027FFE00040479
:0400000300007E007B
:00000001FF
