:100000000C945E000C9486000C9486000C94860080
:100010000C9486000C9486000C9486000C94DF01EE
:100020000C9486000C9486000C9486000C94860038
:100030000C9486000C9486000C9486000C94860028
:100040000C9495010C9486000C94C8020C94A202A6
:100050000C9486000C9486000C9486000C94860008
:100060000C9486000C948600000000080002010039
:100070000003040700000000000000000000000072
:10008000240027002A0001020408102040800102F9
:1000900004081020010204081020000000002500C0
:1000A00028002B00040404040404040402020202D5
:1000B000020203030303030302007C0411241FBE96
:1000C000CFEFD8E0DEBFCDBF11E0A0E0B1E0E2E6C7
:1000D000F9E002C005900D92A032B107D9F721E0F6
:1000E000A0E2B1E001C01D92A73DB207E1F710E028
:1000F000CEE5D0E004C02197FE010E94A904CD35D1
:10010000D107C9F70E94FA020C94AF040C940000C6
:10011000AF92BF92CF92DF92EF92FF920F931F9315
:10012000CF93DF936C017B018B01040F151FEB0153
:100130005E01AE18BF08C017D10759F06991D6010A
:10014000ED91FC910190F081E02DC6010995892B7C
:1001500079F7C501DF91CF911F910F91FF90EF903B
:10016000DF90CF90BF90AF900895FC01538D448DE8
:10017000252F30E0842F90E0821B930B541710F052
:10018000CF96089501970895FC01918D828D98175F
:1001900061F0A28DAE0FBF2FB11D5D968C91928D37
:1001A0009F5F9F73928F90E008958FEF9FEF089568
:1001B000FC01918D828D981731F0828DE80FF11D31
:1001C000858D90E008958FEF9FEF0895FC01918D4C
:1001D000228D892F90E0805C9F4F821B91098F7345
:1001E0009927089581E391E00E94E60021E0892BA0
:1001F00009F420E0822F089580E090E0892B29F017
:100200000E94F20081110C9400000895FC01A48D5D
:10021000A80FB92FB11DA35ABF4F2C91848D90E028
:1002200001968F739927848FA689B7892C93A0890B
:10023000B1898C91837080648C93938D848D981395
:1002400006C00288F389E02D80818F7D8083089528
:10025000EF92FF920F931F93CF93DF93EC0181E016
:10026000888F9B8D8C8D98131AC0E889F9898081BD
:1002700085FF15C09FB7F894EE89FF896083E889F0
:10028000F98980818370806480839FBF81E090E0E2
:10029000DF91CF911F910F91FF90EF900895F62E6F
:1002A0000B8D10E00F5F1F4F0F731127E02E8C8D09
:1002B0008E110CC00FB607FCFACFE889F98980814E
:1002C00085FFF5CFCE010E940601F1CFEB8DEC0F3B
:1002D000FD2FF11DE35AFF4FF0829FB7F8940B8F6B
:1002E000EA89FB8980818062CFCFCF93DF93EC01D5
:1002F000888D8823B9F0AA89BB89E889F9898C910E
:1003000085FD03C0808186FD0DC00FB607FCF7CFC9
:100310008C9185FFF2CF808185FFEDCFCE010E94C9
:100320000601E9CFDF91CF9108951F920F920FB68A
:100330000F9211242F933F938F939F93AF93BF936B
:100340008091D3019091D401A091D501B091D601B3
:100350003091D20123E0230F2D3758F50196A11DCE
:10036000B11D2093D2018093D3019093D401A09327
:10037000D501B093D6018091CE019091CF01A0918B
:10038000D001B091D1010196A11DB11D8093CE0184
:100390009093CF01A093D001B093D101BF91AF91C1
:1003A0009F918F913F912F910F900FBE0F901F90B3
:1003B000189526E8230F0296A11DB11DD2CF1F92DA
:1003C0000F920FB60F9211242F933F938F939F9309
:1003D000AF93BF93EF93FF938091250190912601F6
:1003E000A0912701B0912801892B8A2B8B2BB1F189
:1003F00090912001E0912101F091220180818927D3
:1004000080838091250190912601A0912701B091D0
:100410002801181619061A061B069CF4809125015E
:1004200090912601A0912701B09128010197A1097F
:10043000B1098093250190932601A0932701B093E1
:100440002801FF91EF91BF91AF919F918F913F91C3
:100450002F910F900FBE0F901F9018958091000163
:10046000E8EBF0E0E4919FEF90930001E13009F4B4
:1004700031C068F1E23009F433C090E0FC01E85982
:10048000FF4F2491FC01EA57FF4F3491FC01EC55DA
:10049000FF4FE491EE23A9F2222351F0233009F417
:1004A0003AC078F5213009F43CC0223009F43DC04F
:1004B000F0E0EE0FFF1FE656FF4FA591B4918FB706
:1004C000F894EC9130953E233C938FBFBACF1092B5
:1004D0006E00D3CF90916F009D7F90936F00CDCF32
:1004E000909170009D7F9093700091E09093B00088
:1004F0009091B100987F94609093B1001092B300F6
:10050000BCCF2730A9F02830C9F0243089F680917B
:1005100080008F7D03C0809180008F778093800062
:10052000C7CF84B58F7784BDC3CF84B58F7DFBCF14
:100530008091B0008F778093B000BACF8091B000E7
:100540008F7DF9CF1F920F920FB60F9211242F9328
:100550003F934F935F936F937F938F939F93AF934B
:10056000BF93EF93FF9381E391E00E940601FF9117
:10057000EF91BF91AF919F918F917F916F915F911B
:100580004F913F912F910F900FBE0F901F90189594
:100590001F920F920FB60F9211242F938F939F9358
:1005A000EF93FF93E0914101F09142018081E0914E
:1005B0004701F091480182FD1BC0908180914A0162
:1005C0008F5F8F7320914B01821741F0E0914A01B8
:1005D000F0E0EF5CFE4F958F80934A01FF91EF9121
:1005E0009F918F912F910F900FBE0F901F90189594
:1005F0008081F4CF789484B5826084BD84B58160B5
:1006000084BD85B5826085BD85B5816085BD8091DD
:100610006E00816080936E00109281008091810055
:10062000826080938100809181008160809381004D
:10063000809180008160809380008091B10084600F
:100640008093B1008091B00081608093B000809170
:100650007A00846080937A0080917A00826080932F
:100660007A0080917A00816080937A0080917A008C
:10067000806880937A001092C100809100018830D8
:1006800009F453C08F3F09F456C0E0914101F09145
:10069000420182E08083E0913D01F0913E011082B1
:1006A000E0913F01F09140018FEC8083109249016D
:1006B000E0914501F091460186E08083E09143019D
:1006C000F0914401808180618083E0914301F09149
:1006D0004401808188608083E0914301F09144016E
:1006E000808180688083E0914301F09144018081A2
:1006F0008F7D808349E050E063E171E081E391E028
:100700000E94880042E050E06DE171E081E391E0F9
:100710000E948800C0E0D0E02097F1F30E94F20030
:100720008823D1F30E940000F7CFE8EBF0E084913A
:1007300087FDABCF49C088E080930001E8EBF0E093
:1007400084918F3F09F4A1CF813009F47FC020F15B
:10075000823071F71092B0001092B1009091B00009
:1007600092609093B0009091B10091609093B1002D
:10077000ECEAF0E0E491F0E0EE0FFF1FE656FF4FE9
:10078000259134913093220120932101EEE8F0E08D
:10079000E491E093200118C014BC15BC84B58260BC
:1007A00084BD85B5816085BDECEAF0E0E491F0E0C0
:1007B000EE0FFF1FE656FF4F85919491EEE8F0E0B3
:1007C000E491E093240180E0EEE8F0E09491ECEA1B
:1007D000F0E02491222399F030E0220F331FF90139
:1007E000E458FF4FA591B491F901E656FF4F2591CA
:1007F00034912FB7F894EC91E92BEC932FBF882319
:1008000009F45AC0823009F46FC0813009F03CC04D
:1008100080918100887F8160809381008FE097E2E2
:10082000909389008093880080E892E0A0E0B0E097
:100830008093290190932A01A0932B01B0932C015E
:1008400080916F00826080936F001FCF10928000B4
:100850001092810090918100986090938100909116
:100860008100916090938100ECEAF0E0E491F0E087
:10087000EE0FFF1FE656FF4F25913491EEE8F0E0B2
:10088000E491E0932301A0CF823009F0FECE8FE007
:100890008093B30080E892E0A0E0B0E0809325016F
:1008A00090932601A0932701B093280180917000B6
:1008B000826080937000E9CE85B5887F836085BDB6
:1008C0008BE987BD80E892E0A0E0B0E080932D0145
:1008D00090932E01A0932F01B093300180916E0070
:1008E000826080936E00D1CE8091B100887F846059
:1008F0008093B1008BE9CCCFE1E3F1E01382128267
:1009000088EE93E0A0E0B0E084839583A683B7836C
:1009100085E091E09183808385EC90E095878487E2
:1009200084EC90E09787868780EC90E0918B808BB9
:1009300081EC90E0938B828B82EC90E0958B848BA2
:1009400086EC90E0978B868B118E128E138E148E10
:100950000895EE0FFF1F0590F491E02D0994F8948F
:02096000FFCFC7
:10096200FF0000000028018800B5007501E600C400
:1009720000D80048656C6C6F204D4454000D0A008D
:107E0000112484B714BE81FFF0D085E080938100F7
:107E100082E08093C00088E18093C10086E0809377
:107E2000C20080E18093C4008EE0C9D0259A86E02C
:107E300020E33CEF91E0309385002093840096BBD3
:107E4000B09BFECF1D9AA8958150A9F7CC24DD24C4
:107E500088248394B5E0AB2EA1E19A2EF3E0BF2EE7
:107E6000A2D0813461F49FD0082FAFD0023811F036
:107E7000013811F484E001C083E08DD089C08234E0
:107E800011F484E103C0853419F485E0A6D080C0E4
:107E9000853579F488D0E82EFF2485D0082F10E0AE
:107EA000102F00270E291F29000F111F8ED06801E7
:107EB0006FC0863521F484E090D080E0DECF843638
:107EC00009F040C070D06FD0082F6DD080E0C81688
:107ED00080E7D80618F4F601B7BEE895C0E0D1E017
:107EE00062D089930C17E1F7F0E0CF16F0E7DF06D8
:107EF00018F0F601B7BEE89568D007B600FCFDCFD4
:107F0000A601A0E0B1E02C9130E011968C91119780
:107F100090E0982F8827822B932B1296FA010C0160
:107F200087BEE89511244E5F5F4FF1E0A038BF0790
:107F300051F7F601A7BEE89507B600FCFDCF97BE46
:107F4000E89526C08437B1F42ED02DD0F82E2BD052
:107F50003CD0F601EF2C8F010F5F1F4F84911BD097
:107F6000EA94F801C1F70894C11CD11CFA94CF0C13
:107F7000D11C0EC0853739F428D08EE10CD085E9AC
:107F80000AD08FE07ACF813511F488E018D01DD067
:107F900080E101D065CF982F8091C00085FFFCCF94
:107FA0009093C60008958091C00087FFFCCF809118
:107FB000C00084FD01C0A8958091C6000895E0E648
:107FC000F0E098E1908380830895EDDF803219F02E
:107FD00088E0F5DFFFCF84E1DECF1F93182FE3DFCA
:107FE0001150E9F7F2DF1F91089580E0E8DFEE27F6
:047FF000FF270994CA
:027FFE00040479
:0400000300007E007B
:00000001FF
