:100000000C9463000C948B000C948B000C948B006C
:100010000C948B000C948B000C948B000C940003BC
:100020000C948B000C948B000C948B000C948B0024
:100030000C948B000C948B000C948B000C948B0014
:100040000C9482030C948B000C948B000C948B000A
:100050000C948B000C948B000C948B000C948B00F4
:100060000C94CC030C948B000000000024002700AB
:100070002A0000000000250028002B0002000000DC
:1000800000230026002900040404040404040402DC
:100090000202020202030303030303010204081025
:1000A00020408001020408102001020408102000F2
:1000B0000000080002010000030407000000000027
:1000C00000000000E70411241FBECFEFD8E0DEBF20
:1000D000CDBF11E0A0E0B1E0EEE1FEE002C005908E
:1000E0000D92A232B107D9F721E0A2E2B1E001C03E
:1000F0001D92A83EB207E1F710E0C3E6D0E004C0CD
:100100002197FE010E940707C236D107C9F70E9456
:1001100025050C940D070C940000AF92BF92CF926E
:10012000DF92EF92FF920F931F93CF93DF936C01B7
:100130007B018B01040F151FEB015E01AE18BF0898
:10014000C017D10759F06991D601ED91FC9101904A
:10015000F081E02DC6010995892B79F7C501DF9162
:10016000CF911F910F91FF90EF90DF90CF90BF90B4
:10017000AF900895833081F028F4813099F0823077
:10018000A9F008958730A9F08830C9F08430B1F41F
:10019000809180008F7D03C0809180008F77809355
:1001A0008000089584B58F7784BD089584B58F7DD0
:1001B000FBCF8091B0008F778093B000089580913D
:1001C000B0008F7DF9CF1F93CF93DF93282F30E0BE
:1001D000F901E155FF4F8491F901E556FF4FD491A4
:1001E000F901E957FF4FC491CC23A9F0162F8111D3
:1001F0000E94BA00EC2FF0E0EE0FFF1FEE58FF4F09
:10020000A591B4918FB7F894EC91111108C0D095D5
:10021000DE23DC938FBFDF91CF911F910895DE2BFA
:10022000F8CFCF93DF9390E0FC01E556FF4F249188
:1002300089579F4FFC0184918823D1F090E0880F6B
:10024000991FFC01E859FF4FA591B491FC01EE58AC
:10025000FF4FC591D491623071F49FB7F8943C91EF
:10026000822F809583238C93E8812E2B28839FBF38
:10027000DF91CF9108958FB7F894EC912E2B2C93AA
:100280008FBFF6CF1F93CF93DF93182FEB0161E061
:100290000E941101209739F460E0812FDF91CF9106
:1002A0001F910C94E300CF3FD10511F461E0F5CF2D
:1002B000E12FF0E0E155FF4FE491E33031F140F4FC
:1002C000E130B1F0E230E1F0C038D1057CF7E4CFA5
:1002D000E73029F1E83059F1E430B1F7809180003E
:1002E000806280938000D0938B00C0938A0004C00A
:1002F00084B5806884BDC7BDDF91CF911F910895FB
:1003000084B5806284BDC8BDF7CF809180008068CD
:1003100080938000D0938900C0938800EDCF8091B6
:10032000B00080688093B000C093B300E5CF8091A7
:10033000B00080628093B000C093B400DDCF3FB7BF
:10034000F8948091B6019091B701A091B801B09155
:10035000B90126B5A89B05C02F3F19F00196A11D34
:10036000B11D3FBFBA2FA92F982F8827BC01CD01FF
:10037000620F711D811D911D42E0660F771F881F5E
:10038000991F4A95D1F7089585ED8093BC0080911F
:10039000BC0084FDFCCF10928B0108952091670171
:1003A000260F3327331F21323105ECF420918B01C6
:1003B000FC0190E080E0243069F082E00895A09193
:1003C00067012191AC01495B5E4FA40FB52FB11DB0
:1003D0002C930196861798F380916701680F6093BC
:1003E000670180E0089581E0089508958FEF9FEF01
:1003F00008958FEF9FEF08958091460190E09195C9
:10040000819591090895CF92DF92EF92FF920F9319
:100410001F93CF93DF937C01CB018A01209145018B
:10042000222389F0EB016B01C40ED51ECC15DD052E
:1004300069F06991D701ED91FC910190F081E02D77
:10044000C7010995F3CF642F0E94CE01C801DF9147
:10045000CF911F910F91FF90EF90DF90CF90089573
:10046000CF93DF931F92CDB7DEB76983209145010B
:100470002223F9F020914401203258F021E030E0AD
:10048000FC013383228390E080E00F90DF91CF91D5
:10049000089580914301E82FF0E0ED5DFE4F9981D2
:1004A00090838F5F809343018093440181E090E0CB
:1004B000ECCF61E0CE0101960E94CE01F7CFCF9341
:1004C000FC01C48121E020934501C09322011092D8
:1004D0004301109244018485682B8BEC91E00E94CB
:1004E000300290914401913208F03FC080918B011D
:1004F0008111FCCF82E080938B0181E080938D019C
:100500008FEF80938A011092AF019093AE01A3E226
:10051000B1E0EEE8F1E080E098132FC01092B00156
:100520008091B001CC0FC82BC093B00180918C0199
:10053000813039F510928C018091B0018093BB001D
:100540008091BC0083FDF8CF85EC8093BC00809146
:100550008B018230E1F380918A018F3F31F08091ED
:100560008A01803211F080918A0110924301109229
:10057000440110924501CF9108952D9121938F5FF1
:10058000CBCF85EEE2CF089590E080E008950F9301
:100590001F93CF938C01C62F64600E945F026C2F63
:1005A0006B7FC8010E945F0283EC90E00197F1F736
:1005B000CF911F910F9108950F931F93CF93DF93C6
:1005C0008C01C62FD62FD07FD1606D2F0E945F0285
:1005D0006D2FC8010E94C70280E1C89FE00111246D
:1005E000C1606C2FC8010E945F026C2FC8010E947D
:1005F000C70281E090E0DF91CF911F910F910895A4
:100600001F920F920FB60F9211242F933F934F9387
:100610005F936F937F938F939F93AF93BF93EF936A
:10062000FF938091BF019091C001A091C101B09151
:10063000C201892B8A2B8B2BD1F19091BA01E091C9
:10064000BB01F091BC018081892780838091BF012B
:100650009091C001A091C101B091C2011816190674
:100660001A061B069CF48091BF019091C001A091D5
:10067000C101B091C2010197A109B1098093BF01E5
:100680009093C001A093C101B093C201FF91EF917B
:10069000BF91AF919F918F917F916F915F914F919A
:1006A0003F912F910F900FBE0F901F901895809142
:1006B0000001ECE7F0E0E4919FEF90930001E1305E
:1006C00051F030F0E23069F060E00E94E300DECFEC
:1006D00010926E00F9CF90916F009D7F90936F0004
:1006E000F3CF909170009D7F9093700091E0909374
:1006F000B0009091B100987F94609093B1001092F7
:10070000B300E2CF1F920F920FB60F9211242F93D6
:100710003F938F939F93AF93BF938091B20190913A
:10072000B301A091B401B091B5013091B10123E0C2
:10073000230F2D3758F50196A11DB11D2093B1014E
:100740008093B2019093B301A093B401B093B5012B
:100750008091B6019091B701A091B801B091B90113
:100760000196A11DB11D8093B6019093B701A0938E
:10077000B801B093B901BF91AF919F918F913F9113
:100780002F910F900FBE0F901F90189526E8230F02
:100790000296A11DB11DD2CF1F920F920FB60F92DC
:1007A00011242F933F934F935F936F937F938F9376
:1007B0009F93AF93BF93EF93FF938091B900887F8E
:1007C000803609F44AC0F0F5883209F4A5C018F55E
:1007D000803109F499C0B8F4882309F4F5C0883051
:1007E00009F492C0FF91EF91BF91AF919F918F91CA
:1007F0007F916F915F914F913F912F910F900FBE1D
:100800000F901F901895883109F486C0803251F7F7
:1008100080938A0114C0803409F49BC040F4803373
:10082000B9F38833F9F680938A0185ECAEC0803540
:1008300009F483C0883509F494C0883499F60E947D
:10084000C401D0CF883909F48AC038F5883729F037
:1008500050F4883611F0803729F683E080938B01BD
:100860001092890155C0883809F479C0803919F08F
:10087000803809F0B7CF80918901803208F06FC0CD
:10088000E091890181E08E0F809389018091BB0006
:10089000F0E0E759FE4F80833BC0803B39F0D0F455
:1008A000803A09F477C0883A09F09CCF84E08093BD
:1008B0008B011092680110926701F0E0E0E0099569
:1008C0008091670181110FC081E0809367011092D0
:1008D000470109C0803C09F4A8CF883C09F4A5CFA2
:1008E000883B09F07FCFE091680181E08E0F809313
:1008F0006801F0E0E95BFE4F80818093BB0090913E
:1009000068018091670129C08091B0018093BB008C
:1009100085EC8093BC0066CF9091AF018091AE01D1
:10092000981758F5E091AF0181E08E0F8093AF01E9
:10093000F0E0E257FE4F8081E9CFE091AF0181E026
:100940008E0F8093AF018091BB00F0E0E257FE4F25
:1009500080839091AF018091AE019817C8F285E82D
:10096000D8CFE091AF0181E08E0F8093AF018091ED
:10097000BB00F0E0E257FE4F808380918D01811132
:100980005ECF81E080938C0184EA8093BC0010925A
:100990008B0128CF85EC8093BC0010928B01809155
:1009A0008901803230F4E0918901F0E0E759FE4F8F
:1009B00010826091890170E089E691E0F0E0E0E06A
:1009C0000995109289010ECF10928A0138CFCF93EA
:1009D000DF93EBECF1E01382128288EE93E0A0E06B
:1009E000B0E084839583A683B78388E091E0918308
:1009F0008083EBEDF1E0138212828AE191E0918332
:100A00008083118687E2848380E1828782E0838706
:100A10001486C7EDD1E081E090E09983888385E07A
:100A20008A8383E08B8361E085E00E94110161E0AD
:100A30008B810E94110160E08A810E94E30060E0E6
:100A40008B81DF91CF910C94E300789484B5826020
:100A500084BD84B5816084BD85B5826085BD85B562
:100A6000816085BD80916E00816080936E001092E0
:100A7000810080918100826080938100809181005B
:100A800081608093810080918000816080938000EC
:100A90008091B10084608093B1008091B00081604A
:100AA0008093B00080917A00846080937A00809176
:100AB0007A00826080937A0080917A0081608093CE
:100AC0007A0080917A00806880937A001092C10049
:100AD00080910001883009F48CC08F3F09F4A0C0D8
:100AE00062E082E00E94110141EB842E40E0942EEE
:100AF000CDE9D0E009E810E053E3352E60E0A62E02
:100B000060E0B62EF4018491FE01F490F801E490C7
:100B1000EE2089F081110E94BA00EE2DF0E0EE0F78
:100B2000FF1FE358FF4FA591B4918C91F8227724D1
:100B30007394F11001C0712CF72DF1707F2E80910C
:100B40000101F81748F5E0900201F09003013E9C86
:100B500060013F9CD00C112421E0C2162FEFD20679
:100B60000CF420C18FEFC816D10411F00CF01EC197
:100B7000D194C194D1088091D7019091D801009768
:100B800009F419C1019709F42BC1EFEFEE1AFE0A1F
:100B9000F0920301E0920201709201010E949F0114
:100BA0002B013C0182E3C82ED12CE12CF12C0E94B8
:100BB0009F016419750986099709683E734081058C
:100BC0009105A8F3F1E0CF1AD108E108F10828EE69
:100BD000420E23E0521E611C711CC114D104E104B9
:100BE000F10429F7A114B10409F48CCF0E9400008C
:100BF00089CFECE7F0E0C491C7FD72CF61E088E0F7
:100C00000E941101CC2309F47AC0C23009F08FC0D0
:100C10008091B100887F84608093B1008BE9AEC081
:100C200088E080930001ECE7F0E0C491CF3F09F445
:100C300057CFC13021F150F0C23009F43EC0C7FD9A
:100C40004FCF61E088E00E941101DFCF14BC15BCDA
:100C500084B5826084BD85B5816085BDEFE8F0E034
:100C6000E491F0E0EE0FFF1FEE58FF4F8591949155
:100C7000E3EAF0E0E491E093BE01C0E0BFCF109260
:100C800080001092810080918100886080938100B3
:100C900080918100816080938100EFE8F0E0E49131
:100CA000F0E0EE0FFF1FEE58FF4F85919491E3EABD
:100CB000F0E0E491E093BD01A1CF1092B00010925A
:100CC000B1008091B00082608093B0008091B1004B
:100CD00081608093B100EFE8F0E0E491F0E0EE0F86
:100CE000FF1FEE58FF4F859194919093BC01809324
:100CF000BB01E3EAF0E0E491E093BA017FCF85B570
:100D0000887F836085BD8BE987BD80E892E0A0E0A5
:100D1000B0E08093C7019093C801A093C901B0933C
:100D2000CA0180916E00826080936E00D9CEC1307E
:100D3000F1F480918100887F8160809381008FE051
:100D400097E2909389008093880080E892E0A0E089
:100D5000B0E08093C3019093C401A093C501B09308
:100D6000C60180916F00826080936F00B9CEC2305F
:100D700021F0C111B5CE8FE0C7CF8FE08093B300D3
:100D800080E892E0A0E0B0E08093BF019093C001C2
:100D9000A093C101B093C2018091700082608093E2
:100DA00070009ECECC24CA94D12CE5CECC24C39422
:100DB000DD24DA94E0CE8091D901D7FC09C0B601D8
:100DC0000E94420160E08091DA010E94E300DDCEE2
:100DD000662777276C197D090E94420161E0F3CFF5
:100DE0008091D901D7FC0AC0B6010E94420170E08F
:100DF00060E08091DA010E944201C7CE70E060E0BD
:100E00000E944201662777276C197D09F2CFEE0F09
:0E0E1000FF1F0590F491E02D0994F894FFCF98
:100E1E00FF0101000000000030020302C402F501D0
:100E2E00FC01F901F60100000000DC028D00C40295
:020E3E00C302ED
:00000001FF
