:100000000C945E000C9486000C9486000C94860080
:100010000C9486000C9486000C9486000C94700559
:100020000C9486000C9486000C9486000C94860038
:100030000C9486000C9486000C9486000C94860028
:100040000C944A060C9486000C9418060C94F20545
:100050000C9486000C9486000C9486000C94860008
:100060000C9494060C948600000000080002010025
:100070000003040700000000000000000200000070
:1000800000250028002B0000000000240027002A83
:100090000004040404040404040202020202020331
:1000A000030303030301020408102040800102043B
:1000B00008102001020408102000B30711241FBEFD
:1000C000CFEFD8E0DEBFCDBF11E0A0E0B1E0ECE8BB
:1000D000F3E102C005900D92A035B107D9F722E0F7
:1000E000A0E5B1E001C01D92A83DB207E1F710E024
:1000F000CEE5D0E004C02197FE010E94AF09CD35C6
:10010000D107C9F70E9417080C94C4090C94000089
:1001100090E0FC01EB55FF4F24918F569F4FFC015F
:100120008491882399F090E0880F991FFC01E9578A
:10013000FF4FA591B491FC01E358FF4F8591949135
:100140008FB7F894EC91E22BEC938FBF0895CF9288
:10015000DF92EF92FF921F93CF93DF936B017C01AD
:1001600080910001883051F08F3FE9F0DF91CF910D
:100170001F91FF90EF90DF90CF900895ECE7F0E0B3
:10018000C491C7FDF3CF88E00E948800CC2309F416
:1001900077C0C23009F09BC08091B100887F846035
:1001A0008093B10071C088E080930001ECE7F0E03B
:1001B000C491CF3FD9F2C13019F148F0C23009F4EF
:1001C0003DC0C7FDD3CF88E00E948800E2CF14BCB9
:1001D00015BC84B5826084BD85B5816085BDE9E9C3
:1001E000F0E0E491F0E0EE0FFF1FE358FF4F859140
:1001F0009491EDEAF0E0E491E0931102C0E0C3CF06
:10020000109280001092810080918100886080931C
:10021000810080918100816080938100E9E9F0E0B4
:10022000E491F0E0EE0FFF1FE358FF4F85919491AA
:10023000EDEAF0E0E491E0931002A5CF1092B00057
:100240001092B1008091B00082608093B0008091E4
:10025000B10081608093B100E9E9F0E0E491F0E061
:10026000EE0FFF1FE358FF4F8591949190930F027B
:1002700080930E02EDEAF0E0E491E0930D0283CF6B
:1002800085B5887F836085BDDBE910E0A0E4B6E03A
:10029000A70196010E94A40928EE33E040E050E057
:1002A0000E948209C130F1F0C23081F1C1115ECFEC
:1002B000D7BD20931A0230931B0240931C02509327
:1002C0001D0280916E00826080936E004FCFC1301E
:1002D00031F480918100887F816080938100DFE02C
:1002E00017E2D4CF8D2F912F9093890080938800AF
:1002F000209316023093170240931802509319026C
:1003000080916F00826080936F0030CFD093B300F4
:10031000209312023093130240931402509315025B
:100320008091700082608093700020CF08950895BE
:10033000AF92BF92CF92DF92EF92FF920F931F93F3
:10034000CF93DF936C017B018B01040F151FEB0131
:100350005E01AE18BF08C017D10759F06991D601E8
:10036000ED91FC910190F081E02DC6010995892B5A
:1003700079F7C501DF91CF911F910F91FF90EF9019
:10038000DF90CF90BF90AF900895FC01538D448DC6
:10039000252F30E0842F90E0821B930B541710F030
:1003A000CF96089501970895FC01918D828D98173D
:1003B00061F0A28DAE0FBF2FB11D5D968C91928D15
:1003C0009F5F9F73928F90E008958FEF9FEF089546
:1003D000FC01918D828D981731F0828DE80FF11D0F
:1003E000858D90E008958FEF9FEF0895FC01918D2A
:1003F000228D892F90E0805C9F4F821B91098F7323
:10040000992708958EE192E00E94F60121E0892B60
:1004100009F420E0822F089580E090E0892B29F0F4
:100420000E94020281110C9400000895FC01A48D29
:10043000A80FB92FB11DA35ABF4F2C91848D90E006
:1004400001968F739927848FA689B7892C93A089E9
:10045000B1898C91837080648C93938D848D981373
:1004600006C00288F389E02D80818F7D8083089506
:10047000EF92FF920F931F93CF93DF93EC0181E0F4
:10048000888F9B8D8C8D98131AC0E889F98980819B
:1004900085FF15C09FB7F894EE89FF896083E889CE
:1004A000F98980818370806480839FBF81E090E0C0
:1004B000DF91CF911F910F91FF90EF900895F62E4D
:1004C0000B8D10E00F5F1F4F0F731127E02E8C8DE7
:1004D0008E110CC00FB607FCFACFE889F98980812C
:1004E00085FFF5CFCE010E941602F1CFEB8DEC0F08
:1004F000FD2FF11DE35AFF4FF0829FB7F8940B8F49
:10050000EA89FB8980818062CFCFCF93DF93EC01B2
:10051000888D8823B9F0AA89BB89E889F9898C91EB
:1005200085FD03C0808186FD0DC00FB607FCF7CFA7
:100530008C9185FFF2CF808185FFEDCFCE010E94A7
:100540001602E9CFDF91CF91089590E0FC01E859C0
:10055000FF4F2491FC01EB55FF4F3491FC01EF5606
:10056000FF4FE491EE23C9F0222339F0233001F14B
:10057000A8F4213019F1223029F1F0E0EE0FFF1F2D
:10058000E358FF4FA591B4918FB7F894EC916111A6
:1005900026C030953E233C938FBF08952730A9F0A5
:1005A0002830C9F0243049F7809180008F7D03C046
:1005B000809180008F7780938000DFCF84B58F7724
:1005C00084BDDBCF84B58F7DFBCF8091B0008F776A
:1005D0008093B000D2CF8091B0008F7DF9CF3E2BB9
:1005E000DACF1F93CF93DF93182FEB010E9488007F
:1005F000209739F460E0812FDF91CF911F910C9407
:10060000A502CF3FD10511F461E0F5CFE12FF0E075
:10061000E859FF4FE491E33031F140F4E130B1F0BB
:10062000E230E1F0C038D1057CF7E4CFE73029F1C2
:10063000E83059F1E430B1F7809180008062809316
:100640008000D0938B00C0938A0004C084B580687A
:1006500084BDC7BDDF91CF911F91089584B580629D
:1006600084BDC8BDF7CF80918000806880938000F2
:10067000D0938900C0938800EDCF8091B00080684E
:100680008093B000C093B300E5CF8091B00080624A
:100690008093B000C093B400DDCFCF93DF93EC0123
:1006A0008091C7029091C802009729F00197C9F084
:1006B000DF91CF9108958091C902D7FD0AC0BE0194
:1006C0000E94F10260E08091CA02DF91CF910C9408
:1006D000A502662777276C1B7D0B0E94F10261E063
:1006E000F2CF8091C902D7FD0BC0BE010E94F1027A
:1006F00070E060E08091CA02DF91CF910C94F1022A
:1007000070E060E00E94F102662777276C1B7D0B8A
:10071000F1CF3FB7F8948091FE019091FF01A09135
:100720000002B091010226B5A89B05C02F3F19F029
:100730000196A11DB11D3FBFBA2FA92F982F882761
:10074000BC01CD01620F711D811D911D42E0660F3C
:10075000771F881F991F4A95D1F708958F929F920E
:10076000AF92BF92CF92DF92EF92FF924B015C016A
:100770000E9489036B017C010E9489036C197D0929
:100780008E099F09683E734081059105A8F321E019
:10079000821A9108A108B10888EEC80E83E0D81E1D
:1007A000E11CF11C81149104A104B10429F7FF900C
:1007B000EF90DF90CF90BF90AF909F908F90089573
:1007C00085ED8093BC008091BC0084FDFCCF10922D
:1007D000080208952091B201260F3327331F2132DA
:1007E0003105ECF420910802FC0190E080E0243017
:1007F00069F082E00895A091B2012191AC014E56BA
:100800005E4FA40FB52FB11D2C930196861798F358
:100810008091B201680F6093B20180E0089581E099
:1008200008950895E0910C0280910B02E81730F4CE
:10083000F0E0EE58FE4F808190E008958FEF9FEF3B
:10084000089590910C0280910B022FEF3FEF9817C3
:1008500048F4E92FF0E0EE58FE4F208130E09F5F32
:1008600090930C02C901089580910B0290910C02A3
:10087000891B990B0895CF92DF92EF92FF920F930D
:100880001F93CF93DF937C01CB018A0120917101EB
:10089000222389F0EB016B01C40ED51ECC15DD05BA
:1008A00069F06991D701ED91FC910190F081E02D03
:1008B000C7010995F3CF642F0E94EA03C801DF91B5
:1008C000CF911F910F91FF90EF90DF90CF900895FF
:1008D000CF93DF931F92CDB7DEB76983209171016B
:1008E0002223F9F020910902203258F021E030E073
:1008F000FC013383228390E080E00F90DF91CF9161
:10090000089580910A02E82FF0E0EF5AFE4F998196
:1009100090838F5F80930A028093090281E090E0C8
:10092000ECCF61E0CE0101960E94EA03F7CFCF93AE
:10093000FC01C48121E020937101C0935001109209
:100940000A02109209028485682B8BEB92E00E94C8
:10095000680490910902913208F03FC0809108022A
:100960008111FCCF82E08093080281E0809307022E
:100970008FEF8093D5011092F7019093F601A1E5D6
:10098000B1E0E6EDF1E080E098132FC01092F8019D
:100990008091F801CC0FC82BC093F801809106021A
:1009A000813039F5109206028091F8018093BB00E6
:1009B0008091BC0083FDF8CF85EC8093BC008091D2
:1009C00008028230E1F38091D5018F3F31F08091B0
:1009D000D501803211F08091D50110920A02109257
:1009E000090210927101CF9108952D9121938F5F8B
:1009F000CBCF85EEE2CF089590E080E00895FB0133
:100A000001900020E9F73197AF01461B570BDC013D
:100A1000ED91FC910280F381E02D0994CF93DF9357
:100A2000BC018EE192E00E94FF04EC0161E371E001
:100A30008EE192E00E94FF048C0F9D1FDF91CF9109
:100A400008950F931F93CF938C01C62F0E94970494
:100A50006C2F6460C8010E9497046C2F6B7FC801E3
:100A60000E94970483EC90E00197F1F7CF911F91DA
:100A70000F9108950F931F93CF93DF938C01D62F7F
:100A8000C42F607F642B0E94210580E1D89FB001B4
:100A900011246C2BC801DF91CF911F910F910C9401
:100AA0002105682F606840E08BEC92E00C943A05D9
:100AB00040E061E08BEC92E00E943A058BE39FE11D
:100AC0000197F1F78091D402882319F080E00C940B
:100AD0005105089541E00E943A0581E090E00895B3
:100AE0001F920F920FB60F9211242F933F934F93A3
:100AF0005F936F937F938F939F93AF93BF93EF9386
:100B0000FF938091120290911302A0911402B09170
:100B10001502892B8A2B8B2BD1F190910D02E0913C
:100B20000E02F0910F02808189278083809112024A
:100B300090911302A0911402B09115021816190693
:100B40001A061B069CF48091120290911302A09148
:100B50001402B09115020197A109B1098093120204
:100B600090931302A0931402B0931502FF91EF919A
:100B7000BF91AF919F918F917F916F915F914F91B5
:100B80003F912F910F900FBE0F901F90189580915D
:100B90000001ECE7F0E0E4919FEF90930001E13079
:100BA00051F030F0E23069F060E00E94A502DECF43
:100BB00010926E00F9CF90916F009D7F90936F001F
:100BC000F3CF909170009D7F9093700091E090938F
:100BD000B0009091B100987F94609093B100109212
:100BE000B300E2CF1F920F920FB60F9211242F93F2
:100BF0003F934F935F936F937F938F939F93AF93A5
:100C0000BF93EF93FF938EE192E00E941602FF9153
:100C1000EF91BF91AF919F918F917F916F915F9174
:100C20004F913F912F910F900FBE0F901F901895ED
:100C30001F920F920FB60F9211242F938F939F93B1
:100C4000EF93FF93E0912E02F0912F028081E091CB
:100C50003402F091350282FD1BC0908180913702F1
:100C60008F5F8F7320913802821741F0E091370235
:100C7000F0E0E25EFD4F958F80933702FF91EF9198
:100C80009F918F912F910F900FBE0F901F901895ED
:100C90008081F4CF1F920F920FB60F9211242F93E1
:100CA0003F938F939F93AF93BF938091FA0190915D
:100CB000FB01A091FC01B091FD013091F90123E00D
:100CC000230F2D3758F50196A11DB11D2093F90171
:100CD0008093FA019093FB01A093FC01B093FD0176
:100CE0008091FE019091FF01A0910002B09101025C
:100CF0000196A11DB11D8093FE019093FF01A09369
:100D00000002B0930102BF91AF919F918F913F91EB
:100D10002F910F900FBE0F901F90189526E8230F6C
:100D20000296A11DB11DD2CF1F920F920FB60F9246
:100D300011242F933F934F935F936F937F938F93E0
:100D40009F93AF93BF93EF93FF938091B900887FF8
:100D5000803609F44AC0F0F5883209F4A7C018F5C6
:100D6000803109F49BC0B8F4882309F4F9C08830B5
:100D700009F494C0FF91EF91BF91AF919F918F9132
:100D80007F916F915F914F913F912F910F900FBE87
:100D90000F901F901895883109F488C0803251F760
:100DA0008093D50114C0803409F49DC040F4803391
:100DB000B9F38833F9F68093D50185ECB0C080355E
:100DC00009F485C0883509F496C0883499F60E94E4
:100DD000E003D0CF883909F48CC038F5883729F082
:100DE00050F4883611F0803729F683E080930802AA
:100DF0001092D40157C0883809F47BC0803919F0AB
:100E0000803809F0B7CF8091D401803208F071C0EA
:100E1000E091D40181E08E0F8093D4018091BB00DA
:100E2000F0E0EC54FE4F80833DC0803B39F0E0F4AD
:100E3000803A09F479C0883A09F09CCF84E0809325
:100E400008021092B3011092B201E0910402F091F5
:100E5000050209958091B20181110FC081E0809354
:100E6000B2011092920109C0803C09F4A6CF883CDF
:100E700009F4A3CF883B09F07DCFE091B30181E075
:100E80008E0F8093B301F0E0EE56FE4F8081809389
:100E9000BB009091B3018091B20129C08091F8010B
:100EA0008093BB0085EC8093BC0064CF9091F701E8
:100EB0008091F601981758F5E091F70181E08E0FC7
:100EC0008093F701F0E0EA52FE4F8081E9CFE09194
:100ED000F70181E08E0F8093F7018091BB00F0E075
:100EE000EA52FE4F80839091F7018091F6019817A6
:100EF000C8F285E8D8CFE091F70181E08E0F8093AA
:100F0000F7018091BB00F0E0EA52FE4F80838091B0
:100F1000070281115CCF81E08093060284EA80930E
:100F2000BC001092080226CF85EC8093BC00109282
:100F300008028091D401803230F4E091D401F0E0D5
:100F4000EC54FE4F10826091D40170E0E0910202F7
:100F5000F091030284EB91E009951092D4010ACF3D
:100F60001092D50134CFCF93DF93EEE1F2E01382FC
:100F7000128288EE93E0A0E0B0E084839583A6839C
:100F8000B78325E031E03183208325EC30E03587DD
:100F9000248724EC30E03787268720EC30E0318B43
:100FA000208B21EC30E0338B228B22EC30E0358B30
:100FB000248B26EC30E0378B268B118E128E138E0D
:100FC000148EEBEBF2E01382128284839583A68366
:100FD000B78387E191E091838083EBECF2E01382A9
:100FE000128289E291E091838083118687E2848373
:100FF00080E1828782E083871486C7ECD2E081E0BB
:1010000090E09983888385E08A8383E08B8385E001
:101010000E9488008B810E94880060E08A810E9483
:10102000A50260E08B81DF91CF910C94A5027894AA
:1010300084B5826084BD84B5816084BD85B58260DD
:1010400085BD85B5816085BD80916E00816080938E
:101050006E001092810080918100826080938100F7
:101060008091810081608093810080918000816007
:10107000809380008091B10084608093B100809162
:10108000B00081608093B00080917A00846080938A
:101090007A0080917A00826080937A0080917A0051
:1010A000816080937A0080917A00806880937A00D2
:1010B0001092C10060E971E080E090E00E94A7001A
:1010C000E0912E02F0912F0282E08083E0912A02CB
:1010D000F0912B021082E0912C02F0912D028FEC06
:1010E000808310923602E0913202F091330286E062
:1010F0008083E0913002F0913102808180618083B1
:10110000E0913002F0913102808188608083E0912B
:101110003002F0913102808180688083E09130025A
:10112000F091310280818F7D808384E391E00E9481
:101130000E058FEF90E00E944D038EE391E00E9438
:101140000E0560ED77E080E090E00E94AE0390E055
:1011500080E00E944D0381E09FEF0E944D0387E4F1
:1011600091E00E940E0568EB7BE080E090E00E9439
:10117000AE0390E080E00E944D0310920C021092AA
:101180000B0210920A02109209021092080281E0EA
:10119000809307021092060261E082E10E94A5029C
:1011A00061E083E10E94A5028091B9008E7F809367
:1011B000B9008091B9008D7F8093B90088E4809355
:1011C000B80085E48093BC0086E991E09093050225
:1011D0008093040287E991E09093030280930202D6
:1011E0001092D0028091D602823018F098E090934D
:1011F000D0028093D30262E370E080E090E00E942E
:10120000AE036091D7028BEC92E00E94970468EEE7
:1012100073E080E090E00E94AE0360E38BEC92E02C
:101220000E942105CBE4D6E4CE010197F1F760E3FB
:101230008BEC92E00E9421052197F1F760E38BECA3
:1012400092E00E94210583E592E00197F1F760E2C8
:101250008BEC92E00E9421056091D002606240E038
:101260008BEC92E00E943A0584E08093D10240E04A
:101270006CE08BEC92E00E943A050E94580582E0F7
:101280008093D20240E066E08BEC92E00E943A0547
:1012900040E062E08BEC92E00E943A058BE39FE134
:1012A0000197F1F788E08093D70260E08BEC92E041
:1012B0000E94970483E00E94510564E371E08BEC87
:1012C00092E00E94FF0468EE73E080E090E00E94EC
:1012D000AE030E94580568EC70E080E090E00E9448
:1012E000AE0364EF71E080E090E00E94A700C0E0F0
:1012F000D0E02097F1F30E9402028823D1F30E94EC
:101300000000F7CFA1E21A2EAA1BBB1BFD010DC0E6
:10131000AA1FBB1FEE1FFF1FA217B307E407F507A5
:1013200020F0A21BB30BE40BF50B661F771F881F81
:10133000991F1A9469F760957095809590959B0117
:10134000AC01BD01CF0108950E94B509A59F900D84
:10135000B49F900DA49F800D911D11240895EE0F50
:10136000FF1F0590F491E02D0994A29FB001B39F57
:10137000C001A39F700D811D1124911DB29F700D9E
:0C138000811D1124911D0895F894FFCFE9
:10138C00FF0000000038029801C5018502F601D467
:10139C0001E8010000000068043B04FC0411043463
:1013AC000421041204000000006A059801FC04FBEF
:1013BC00040D0A0048656C6C6F204D445400547544
:1013CC00726E20434357005475726E2043570000D1
:107E0000112484B714BE81FFF0D085E080938100F7
:107E100082E08093C00088E18093C10086E0809377
:107E2000C20080E18093C4008EE0C9D0259A86E02C
:107E300020E33CEF91E0309385002093840096BBD3
:107E4000B09BFECF1D9AA8958150A9F7CC24DD24C4
:107E500088248394B5E0AB2EA1E19A2EF3E0BF2EE7
:107E6000A2D0813461F49FD0082FAFD0023811F036
:107E7000013811F484E001C083E08DD089C08234E0
:107E800011F484E103C0853419F485E0A6D080C0E4
:107E9000853579F488D0E82EFF2485D0082F10E0AE
:107EA000102F00270E291F29000F111F8ED06801E7
:107EB0006FC0863521F484E090D080E0DECF843638
:107EC00009F040C070D06FD0082F6DD080E0C81688
:107ED00080E7D80618F4F601B7BEE895C0E0D1E017
:107EE00062D089930C17E1F7F0E0CF16F0E7DF06D8
:107EF00018F0F601B7BEE89568D007B600FCFDCFD4
:107F0000A601A0E0B1E02C9130E011968C91119780
:107F100090E0982F8827822B932B1296FA010C0160
:107F200087BEE89511244E5F5F4FF1E0A038BF0790
:107F300051F7F601A7BEE89507B600FCFDCF97BE46
:107F4000E89526C08437B1F42ED02DD0F82E2BD052
:107F50003CD0F601EF2C8F010F5F1F4F84911BD097
:107F6000EA94F801C1F70894C11CD11CFA94CF0C13
:107F7000D11C0EC0853739F428D08EE10CD085E9AC
:107F80000AD08FE07ACF813511F488E018D01DD067
:107F900080E101D065CF982F8091C00085FFFCCF94
:107FA0009093C60008958091C00087FFFCCF809118
:107FB000C00084FD01C0A8958091C6000895E0E648
:107FC000F0E098E1908380830895EDDF803219F02E
:107FD00088E0F5DFFFCF84E1DECF1F93182FE3DFCA
:107FE0001150E9F7F2DF1F91089580E0E8DFEE27F6
:047FF000FF270994CA
:027FFE00040479
:0400000300007E007B
:00000001FF
